:020000040800F2
:104000007FD6499F03010000660000001BAC2B6AAD
:104010003030312E3032000000000000000000007F
:10402000544543484D00000000000000000000001F
:1040300000000000004000080B0E010800420008CC
:10404000004200080B0E0108FFFFFFFF0000000008
:104050000000000000000000000000000000000060
:104060000000000000000000000000000000000050
:104070000000000000000000000000000000000040
:104080000000000000000000000000000000000030
:104090000000000000000000000000000000000020
:1040A0000000000000000000000000000000000010
:1040B0000000000000000000000000000000000000
:1040C00000000000000000000000000000000000F0
:1040D00000000000000000000000000000000000E0
:1040E00000000000000000000000000000000000D0
:1040F00000000000000000000000000000000000C0
:1041000000000000000000000000000000000000AF
:10411000000000000000000000000000000000009F
:10412000000000000000000000000000000000008F
:10413000000000000000000000000000000000007F
:10414000000000000000000000000000000000006F
:10415000000000000000000000000000000000005F
:10416000000000000000000000000000000000004F
:10417000000000000000000000000000000000003F
:10418000000000000000000000000000000000002F
:10419000000000000000000000000000000000001F
:1041A000000000000000000000000000000000000F
:1041B00000000000000000000000000000000000FF
:1041C00000000000000000000000000000000000EF
:1041D00000000000000000000000000000000000DF
:1041E00000000000000000000000000000000000CF
:1041F00000000000000000000000000000000000BF
:1042000000000120759E0008B19C0008B39C0008C6
:10421000B59C0008B79C0008B99C0008000000008D
:10422000000000000000000000000000BB9C00082F
:10423000BD9C000800000000BF9C0008C19C000855
:10424000C59E0008C59E0008C59E0008C59E0008C2
:10425000C59E0008C59E0008C59E0008CD9C0008AC
:10426000D79C0008C59E0008C59E0008E19C000878
:10427000C59E0008C59E0008F19C0008019D00082D
:10428000C59E0008C59E0008119D0008219D0008DC
:10429000319D0008419D0008C59E0008C59E00088C
:1042A000C59E0008C59E0008C59E0008C59E000862
:1042B000C59E00080000000000000000C59E000828
:1042C000C59E0008C59E0008C59E0008C59E000842
:1042D000C59E0008519D0008C59E0008C59E0008A7
:1042E000C59E0008C59E00080000000000000000F8
:1042F00000000000000000000000000000000000BE
:1043000000000000C59E000800000000C59E0008D7
:104310000000000000000000619D0008C59E00082C
:10432000C59E0008C59E0008C59E0008C59E0008E1
:10433000C59E000800000000000000000000000012
:10434000C59E0008C59E0008C59E0008000000002C
:10435000C59E0008C59E0008C59E0008C59E0008B1
:10436000C59E0008C59E0008C59E0008000000000C
:10437000C59E0008C59E0008000000000000000067
:10438000C59E0008C59E0008C59E000800000000EC
:1043900010B5054C237833B9044B13B10448AFF37F
:1043A00000800123237010BD1802002000000000CF
:1043B000CC08010808B5034B1BB103490348AFF310
:1043C000008008BD000000001C020020CC0801088D
:1043D00010F8012B11F8013B012A28BF9A42F7D0AF
:1043E000D01A7047034613F8012B002AFBD1181A84
:1043F00001387047000000000000000000000000CD
:1044000001F0FF01102A2BDB10F0070F08D010F885
:10441000013B013A8B422DD010F0070F42B3F6D189
:10442000F0B441EA012141EA014122F007047FF0A2
:1044300000070023F0E80256083C85EA010586EAF9
:10444000010685FA47F5A3FA87F586FA47F6A5FA35
:1044500087F68EB9EED1F0BC01F0FF0102F0070241
:1044600032B110F8013B013A83EA010313B1F8D1EC
:104470000020704701387047002D06BF35460338CD
:10448000073815F0010F07D1013015F4807F02BF06
:10449000013015F4C03F0130F0BC0138704700BF57
:1044A00081F0004102E000BF83F0004330B54FEAE5
:1044B00041044FEA430594EA050F08BF90EA020F52
:1044C0001FBF54EA000C55EA020C7FEA645C7FEAE5
:1044D000655C00F0E2804FEA5454D4EB5555B8BF08
:1044E0006D420CDD2C4480EA020281EA030382EA79
:1044F000000083EA010180EA020281EA0303362D0B
:1045000088BF30BD11F0004F4FEA01314FF4801CDD
:104510004CEA113102D0404261EB410113F0004FEF
:104520004FEA03334CEA133302D0524263EB4303A6
:1045300094EA050F00F0A780A4F10104D5F1200E44
:104540000DDB02FA0EFC22FA05F2801841F100019F
:1045500003FA0EF2801843FA05F359410EE0A5F173
:1045600020050EF1200E012A03FA0EFC28BF4CF0A4
:10457000020C43FA05F3C01851EBE37101F000455A
:1045800007D54FF0000EDCF1000C7EEB00006EEB67
:104590000101B1F5801F1BD3B1F5001F0CD34908F1
:1045A0005FEA30004FEA3C0C04F101044FEA445248
:1045B00012F5800F80F09A80BCF1004F08BF5FEACF
:1045C000500C50F1000041EB045141EA050130BDAF
:1045D0005FEA4C0C404141EB0101013C28BFB1F5C1
:1045E000801FE9D291F0000F04BF01460020B1FA0C
:1045F00081F308BF2033A3F10B03B3F120020CDADF
:104600000C3208DD02F1140CC2F10C0201FA0CF0BC
:1046100021FA02F10CE002F11402D8BFC2F1200C21
:1046200001FA02F120FA0CFCDCBF41EA0C019040D7
:10463000E41AA2BF01EB0451294330BD6FEA040420
:104640001F3C1CDA0C340EDC04F11404C4F120020B
:1046500020FA04F001FA02F340EA030021FA04F31D
:1046600045EA030130BDC4F10C04C4F1200220FA74
:1046700002F001FA04F340EA0300294630BD21FAB2
:1046800004F0294630BD94F0000F83F4801306BF78
:1046900081F480110134013D4EE77FEA645C18BF6C
:1046A0007FEA655C29D094EA050F08BF90EA020F03
:1046B00005D054EA000C04BF1946104630BD91EAFB
:1046C000030F1EBF0021002030BD5FEA545C05D1FE
:1046D0004000494128BF41F0004130BD14F580043D
:1046E0003CBF01F5801130BD01F0004545F0FE41B1
:1046F00041F470014FF0000030BD7FEA645C1ABFE6
:10470000194610467FEA655C1CBF0B46024650EA1C
:10471000013406BF52EA033591EA030F41F4002148
:1047200030BD00BF90F0000F04BF0021704730B5CE
:104730004FF4806404F132044FF000054FF00001A3
:1047400050E700BF90F0000F04BF0021704730B564
:104750004FF4806404F1320410F0004548BF404239
:104760004FF000013EE700BF42004FEAE2014FEA8E
:1047700031014FEA02701FBF12F07F4393F07F4F69
:1047800081F06051704732F07F4208BF704793F06C
:104790007F4F04BF41F40021704730B54FF460747F
:1047A00001F0004521F000411CE700BF50EA010282
:1047B00008BF704730B54FF000050AE050EA01022B
:1047C00008BF704730B511F0004502D5404261EB9B
:1047D00041014FF4806404F132045FEA915C3FF4DC
:1047E000D8AE4FF003025FEADC0C18BF03325FEA79
:1047F000DC0C18BF033202EBDC02C2F1200300FA2A
:1048000003FC20FA02F001FA03FE40EA0E0021FA4E
:1048100002F11444BDE600BF70B54FF0FF0C4CF43C
:10482000E06C1CEA11541DBF1CEA135594EA0C0FEE
:1048300095EA0C0F00F0DEF82C4481EA030621EA29
:104840004C5123EA4C5350EA013518BF52EA033564
:1048500041F4801143F4801338D0A0FB02CE4FF016
:104860000005E1FB02E506F00042E0FB03E54FF046
:104870000006E1FB03569CF0000F18BF4EF0010E3E
:10488000A4F1FF04B6F5007F64F5407404D25FEA3A
:104890004E0E6D4146EB060642EAC62141EA5551ED
:1048A0004FEAC52040EA5E504FEACE2EB4F1FD0C2F
:1048B00088BFBCF5E06F1ED8BEF1004F08BF5FEAAD
:1048C000500E50F1000041EB045170BD06F000465F
:1048D00046EA010140EA020081EA0301B4EB5C040C
:1048E000C2BFD4EB0C0541EA045170BD41F4801104
:1048F0004FF0000E013C00F3AB8014F1360FDEBF29
:10490000002001F0004170BDC4F10004203C35DA04
:104910000C341BDC04F11404C4F1200500FA05F387
:1049200020FA04F001FA05F240EA020001F0004228
:1049300021F0004110EBD37021FA04F642EB06019E
:104940005EEA430E08BF20EAD37070BDC4F10C04C8
:10495000C4F1200500FA04F320FA05F001FA04F28C
:1049600040EA020001F0004110EBD37041F1000178
:104970005EEA430E08BF20EAD37070BDC4F1200583
:1049800000FA05F24EEA020E20FA04F301FA05F2EB
:1049900043EA020321FA04F001F0004121FA04F293
:1049A00020EA020000EBD3705EEA430E08BF20EA63
:1049B000D37070BD94F0000F0FD101F0004640009D
:1049C00041EB010111F4801F08BF013CF7D041EA1F
:1049D000060195F0000F18BF704703F00046520023
:1049E00043EB030313F4801F08BF013DF7D043EAF4
:1049F0000603704794EA0C0F0CEA135518BF95EAAA
:104A00000C0F0CD050EA410618BF52EA4306D1D130
:104A100081EA030101F000414FF0000070BD50EA4F
:104A2000410606BF1046194652EA430619D094EAD9
:104A30000C0F02D150EA013613D195EA0C0F05D1C3
:104A400052EA03361CBF104619460AD181EA030117
:104A500001F0004141F0FE4141F470014FF00000CF
:104A600070BD41F0FE4141F4780170BD70B54FF06A
:104A7000FF0C4CF4E06C1CEA11541DBF1CEA1355EA
:104A800094EA0C0F95EA0C0F00F0A7F8A4EB0504CC
:104A900081EA030E52EA03354FEA013100F08880C3
:104AA0004FEA03334FF0805545EA131343EA12638C
:104AB0004FEA022245EA111545EA10654FEA002641
:104AC0000EF000419D4208BF964244F1FD0404F5FA
:104AD000407402D25B084FEA3202B61A65EB030556
:104AE0005B084FEA32024FF480104FF4002CB6EB13
:104AF000020E75EB030E22BFB61A754640EA0C0093
:104B00005B084FEA3202B6EB020E75EB030E22BFD2
:104B1000B61A754640EA5C005B084FEA3202B6EB13
:104B2000020E75EB030E22BFB61A754640EA9C00D2
:104B30005B084FEA3202B6EB020E75EB030E22BFA2
:104B4000B61A754640EADC0055EA060E18D04FEA60
:104B5000051545EA16754FEA06164FEAC30343EA00
:104B600052734FEAC2025FEA1C1CC0D111F4801FCD
:104B70000BD141EA00014FF000004FF0004CB6E7C6
:104B800011F4801F04BF01430020B4F1FD0C88BF65
:104B9000BCF5E06F3FF6AFAEB5EB030C04BFB6EB70
:104BA000020C5FEA500C50F1000041EB045170BD63
:104BB0000EF0004E4EEA113114EB5C04C2BFD4EB90
:104BC0000C0541EA045170BD41F480114FF0000E14
:104BD000013C90E645EA060E8DE60CEA135594EA90
:104BE0000C0F08BF95EA0C0F3FF43BAF94EA0C0F93
:104BF0000AD150EA01347FF434AF95EA0C0F7FF408
:104C000025AF104619462CE795EA0C0F06D152EA5B
:104C100003353FF4FDAE1046194622E750EA41063F
:104C200018BF52EA43067FF4C5AE50EA41047FF450
:104C30000DAF52EA43057FF4EBAE12E74FEA4102B3
:104C400012F5001215D211D56FF47873B3EB6252DE
:104C500012D94FEAC12343F0004343EA505311F005
:104C6000004F23FA02F018BF404270474FF0000097
:104C7000704750EA013005D111F0004008BF6FF0D5
:104C8000004070474FF00000704700BF4A0011D24B
:104C900012F5001211D20DD56FF47873B3EB625296
:104CA0000ED44FEAC12343F0004343EA505323FAA2
:104CB00002F070474FF00000704750EA013002D117
:104CC0004FF0FF3070474FF0000070474FEA41024D
:104CD000B2F1E04324BFB3F5001CDCF1FE5C0DD95A
:104CE00001F0004C4FEAC0024CEA5070B2F1004FA4
:104CF00040EB830008BF20F00100704711F0804FA7
:104D000021D113F13872BCBF01F00040704741F46B
:104D100080114FEA5252C2F11802C2F1200C10FA6F
:104D20000CF320FA02F018BF40F001004FEAC12353
:104D30004FEAD32303FA0CFC40EA0C0023FA02F3F7
:104D40004FEA4303CCE77FEA625307D150EA0133CD
:104D50001EBF4FF0FE4040F44000704701F000409D
:104D600040F0FE4040F40000704700BF7BB972B9CC
:104D70000029BEBF00204FF0004106E008BF002818
:104D80001CBF6FF000414FF0FF3000F0D3B9ADF120
:104D9000080C6DE904CE002909DB002B1ADB00F0BA
:104DA0004DF8DDF804E0DDE9022304B0704740422D
:104DB00061EB4101002B1BDB00F040F8DDF804E063
:104DC000DDE9022304B0404261EB4101524263EB52
:104DD00043037047524263EB430300F02FF8DDF8C2
:104DE00004E0DDE9022304B0404261EB4101704779
:104DF000524263EB430300F021F8DDF804E0DDE903
:104E0000022304B0524263EB4303704753B94AB9DB
:104E1000002908BF00281CBF4FF0FF314FF0FF30C2
:104E200000F088B9ADF1080C6DE904CE00F006F889
:104E3000DDF804E0DDE9022304B070472DE9F04716
:104E4000089D8E4604468846002B4AD18A42174662
:104E500062D9B2FA82F64EB1C6F1200301FA06F821
:104E600020FA03F3B74043EA0808B4404FEA174E6C
:104E70001FFA87FCB8FBFEF1230C0EFB118843EAF6
:104E8000084301FB0CF29A4209D9FB1801F1FF30EB
:104E900080F0EA809A4240F2E78002393B449A1A55
:104EA000A3B2B2FBFEF00EFB102243EA024300FB6A
:104EB0000CFC9C4509D9FB1800F1FF3280F0D6802C
:104EC0009C4540F2D3803B44023840EA0140A3EBCA
:104ED0000C0300211DB1F3400022C5E90032BDE8FA
:104EE000F0878B4205D90DB1C5E9000100210846C4
:104EF000F5E7B3FA83F1002946D1734502D3824224
:104F000000F20581841A6EEB030201209046002D09
:104F1000E5D0C5E90048E2E7002A00F09080B2FA47
:104F200082F6002E40F0A4808A1A030C4FEA174E36
:104F300080B2BCB20121B2FBFEFC0EFB1C2243EA94
:104F4000024304FB0CF29A4207D9FB180CF1FF381C
:104F500002D29A4200F2E080C4469B1AB3FBFEF2F2
:104F60000EFB123340EA034302FB04F49C4207D9D0
:104F7000FB1802F1FF3002D29C4200F2CA800246C6
:104F80001B1B42EA0C40A5E7C1F120068B4022FA28
:104F900006F71F430EFA01F420FA06F32EFA06FE76
:104FA0004FEA1749234300FA01F81FFA87FCBEFBBA
:104FB000F9F01C0C09FB10EE44EA0E4400FB0CFE59
:104FC000A64502FA01F209D93C1900F1FF3A80F036
:104FD0009C80A64540F2998002383C44A4EB0E0424
:104FE0001FFA83FEB4FBF9F309FB13444EEA0444B1
:104FF00003FB0CFCA44508D93C1903F1FF3E80F0EB
:105000008280A4457FD9023B3C4443EA0040A4EBA4
:105010000C04A0FB02EC64457346E14662D35FD00A
:105020005DB1B8EB030264EB090404FA06F622FA58
:1050300001F31E43CC40C5E9006400214FE7B1FBFA
:10504000F2FC010C41EA0E4180B240EA01423B46CB
:1050500038463C46B846BE462026B1FBF7F1A2EBE7
:10506000080241EA0C4166E7014618E710462CE7C2
:10507000C6F120022EFA02F3B740B14020FA02F244
:105080004FEA174E0A43B3FBFEF8BCB20EFB1833CF
:10509000110C41EA034108FB04F9B04089454FEA8D
:1050A000104380B23ED9791808F1FF3C01D28945FE
:1050B0001FD8A1EB0901B1FBFEF909FB04F80EFBB7
:1050C000191192B242EA0142424529D2BA1809F1B5
:1050D000FF31C4D24245C2D2A9F102013A44BEE72F
:1050E000F0459DD2BEEB02036CEB070C0138E146A4
:1050F00096E7A7EB09094944A8F1020CB1FBFEF9B8
:1051000009FB04F8DBE773467FE7504666E708468D
:10511000FDE63B44023A33E7ACF1020C3B441CE7AA
:1051200049469CE7A1EB0901C446B1FBFEF909FB26
:1051300004F8C4E7704700BF10B5084B1860084B6F
:105140001960084C22707F2105F08FFD2078400007
:1051500009F094F8044B186010BD00BF4002002015
:105160003C020020380200203402002008B5054B24
:10517000196829B1044B1A78044B186805F08AFCA9
:1051800008BD00BF34020020380200204002002089
:10519000064B1B78834205D9054B1B6823B133F8B6
:1051A0001000704700207047002070473802002030
:1051B0003402002008B5024B186805F015FD08BD43
:1051C0004002002030B585B004460025ADF80E50F1
:1051D0000DF10E0101F072FCBDF80E30013B18BF5D
:1051E0000123220A8DF804208DF8054002128DF863
:1051F00006208DF807008DF808508DF809308DF8DD
:105200000A508DF80B50054B1878082201A900F5BB
:10521000887000F067FB05B030BD00BF440200207D
:10522000014B1870704700BF44020020014B1878F2
:10523000704700BF4402002010B5044600F0BCFADD
:1052400000EBC4008379052B01D0002010BD0120A4
:10525000FCE738B50024254601E0013424B2072CD0
:1052600009DCE0B2FFF7E8FF0128F6D10123A340F3
:105270001D432DB2F1E7284638BD08B500F024FBE8
:1052800008BD000070B5002308E003EB4302910065
:10529000184A0A44D1880A31D1800133632BF4DDE6
:1052A000002400E00134632C22DC04EB4402930070
:1052B000104AD35C012BF5D104EB44039A000D4B4B
:1052C00013449B88002BEDD004EB44029100094A63
:1052D0000A44D2889342E5D8064D66000B462B441B
:1052E0005888FFF76FFF33199A0015440023EB80AD
:1052F00070BD00BF4802002008B5034B1B7818445E
:1053000080B200F0EFFA08BD4402002010B50C4650
:10531000002308E01E4901EB8C029480012201F871
:105320002C2010BD0133632B17DC03EB430C184A10
:1053300002EB8C0252888242F4D1002CEAD114494B
:1053400003EB43024FEA820E01EB82024FF0000CA6
:10535000A2F804C001F80EC0E4E7002300E0013326
:10536000632BDEDC03EB4302094911F82220002AFB
:10537000F5D1002CF3D003EB430201EB8202508005
:10538000948003EB4303012201F82320C9E700BF07
:105390004802002000B583B0030A8DF800308DF874
:1053A00001000B0A8DF802308DF80310130A8DF8F6
:1053B00004308DF8052000238DF805308DF8073076
:1053C000082269464FF49870FFF796FF03B05DF826
:1053D00004FB00B583B003128DF800308DF8010096
:1053E0000B0A8DF802308DF8031000238DF804307D
:1053F0008DF805308DF80730082269464FF4A0700B
:10540000FFF77AFF03B05DF804FB000000B583B03E
:105410000A4B1B788DF800308DF8010029B10A681D
:10542000CDF802208B88ADF80630082269464FF48B
:10543000C460FFF761FF03B05DF804FB4402002085
:1054400000B583B04FF0303300930193084B1B78C5
:105450008DF800308DF80100CDF802100822694661
:105460004FF4AC60FFF748FF03B05DF804FB00BFEA
:105470004402002000B583B002466B4600685168C4
:1054800003C3064B18788DF800000822694600F522
:10549000C260FFF731FF03B05DF804FB4402002057
:1054A000F8B5394B1E78002E69D10022DA70012937
:1054B0003AD0354B1B78002B63D0F8BD0133DBB2FB
:1054C0007446324A52F82E2092F806C09C4521D9E3
:1054D00002EB030C9CF807C08445EFD12A4D01274D
:1054E0002F70687095F803C0BC4485F803C09773AB
:1054F000264A52F8245000272F8252F82450A874CC
:1055000052F82450E97452F824201479012CD5D192
:10551000D473D3E70EF1010E5FFA8EFE1C4B1B789D
:105520007345C6D93346CBE7B646F7E70132D2B268
:10553000164C54F82540A67996420CD9A618F6794F
:105540008642F3D1E67B0136E673104C54F82540D1
:1055500000262682EAE70133DBB20D4A12789A422E
:10556000A7D91D46094A52F82320947B012CF2D179
:105570001279012AEFD10129EDD10022D8E70023C9
:10558000EBE701F0DBFD98E7FC06002004070020B4
:10559000F806002038B504460588142008F06EFE91
:1055A000094B43F82500228853F822305BB120686C
:1055B0006168A268186059609A60A2899A81034A5A
:1055C00013780133137038BD04070020F80600205B
:1055D000F8B5002427E00135EDB23E4B53F82630F4
:1055E0009A79AA4210D92B44D87903F019FD0028E2
:1055F000F1D10746EFE7D97B5A79914229D11A8A2E
:105600009B899A4201D224E01FB3324D55F82630CF
:10561000987801F0B3FD55F82620002393732E4AA5
:1056200013700134E4B22D4B1B78A34226D92646D1
:10563000284B53F824309F7B012FF2D11A8A0A326B
:105640001A82244B53F824301D79002DC5D0012D2A
:10565000D1D0204B53F82630198A9A899142E0D351
:1056600000229A731B4B53F826301A821A4BDB78B0
:10567000002BD6D0013B184AD370D2E7164B1B78CB
:10568000012B04D0144B1B78022B0ED0F8BD124B0B
:10569000DB78002BF6D1104C0121607801F04EFD33
:1056A000022323700023A380ECE70B4A93880A337C
:1056B0009BB29380632BE9D9507803F0B1FC18B109
:1056C000054B00221A70E1E70021034B587801F0E6
:1056D00035FDF5E704070020FC060020F806002051
:1056E00030B583B0174AD2F8943000240094019466
:1056F000D2F8941041F40001C2F8941003228DF8FE
:1057000000201B0E8DF802300F4D0521284607F0B2
:1057100018FB8DF803000621284607F012FB0190C4
:1057200022460521284607F000FB2246062128468E
:1057300007F0FBFA0DF102012046FFF767FE03B008
:1057400030BD00BF0010024094160020BFF34F8F01
:105750000549CA6802F4E062044B1343CB60BFF30F
:105760004F8F00BFFDE700BF00ED00E00400FA0529
:1057700084B008B50DF1080C8CE80F006146044BAD
:10578000586901F03BFABDE8084004B0704700BF1B
:105790009407002010B5064CA06805F0E0FB052238
:1057A000A2712178034B03EBC1039A7110BD00BFB6
:1057B0009407002054070020004870475407002039
:1057C00010B58EB006E02BB99DF831202E4B1B781A
:1057D0009A4217D005A92C4BD86801F0ECF9D8B93A
:1057E000059BA3F5E0620F2AEDD8DAB2072AEAD8C2
:1057F00011469DF83000254A02EBC102907100214C
:105800005180E0E79DF83030812B03D0822BE1D12D
:10581000FFF79CFFFFF79AFF002100E00131072905
:1058200017DC1A4A02EBC10253880A339BB2538039
:1058300092889342F2D9154B03EBC1039B79FF2B5E
:10584000ECD0124B03EBC10300225A80FF229A7165
:10585000E4E70D4A53880A339BB2538092889342FF
:1058600001D20EB010BD084C00236380A37984F8E8
:10587000303004F128030FCB8DE80F00183494E882
:105880000F00FFF775FFECE7940700205407002096
:1058900000B58BB002A90B4B586901F05BF910B150
:1058A0000BB05DF804FB01AB08AA02A905488068AB
:1058B00005F083FB0028F3D1024B586901F063F92E
:1058C000EEE700BF9407002008B50146044B1869B5
:1058D00001F071F908B1002008BD0120FCE700BF0C
:1058E0009407002010B58CB0089204900023059313
:1058F0000793069304AC0AA809F011FB0CAB13E95B
:105900000F008DE80F0094E80F00FFF731FF0CB097
:1059100010BD000010B58AB0044608AB01AA0021F2
:1059200005F0C0FB054B9B68A34201D00AB010BD37
:1059300001A9024BD86801F061F9F7E7940700204C
:1059400010B58AB0044608AB01AA012105F0AAFBF4
:10595000054B9B68A34201D00AB010BD01A9024BC0
:10596000186901F04BF9F7E79407002010B4002400
:10597000234622460AE0520092B242F00102400061
:1059800080B2490089B201240133DBB20F2B0BD85E
:1059900080EA010C1CF4004FEDD1002CEBD140004B
:1059A00080B2490089B2EFE7D04380B2400180B2B3
:1059B0005DF8044B704730B58BB005461C46BDF80A
:1059C0003C000E230993059200230693079304914C
:1059D0004301009363010193BDF84010FFF7C6FF38
:1059E0000290BDF838102046FFF7C0FF0390012356
:1059F00008936946284605F02FFA0BB030BD000029
:105A000070B584B005460C46C821242001F07EF80C
:105A10002B4EF0605021242001F078F83061642191
:105A2000202001F073F87061B560347041F2883362
:105A3000B380002373800122B26204F5E062B26198
:105A4000F361736233620EE01E4A02EBC30C42F252
:105A50001071ACF804104FF0FF0E8CF806E002F85D
:105A600033300133DBB2072BEED9154EB279154B2B
:105A700003EBC4039A7100240294019440F20F7363
:105A800000934FF4E063012221462846FFF793FF7D
:105A90000294019440F2FF63009323460222012105
:105AA000B068FFF788FF48F61201B06805F09FFB69
:105AB000B3681A68136823F48033136004B070BDB0
:105AC000940700205407002010B40B4B00EB400259
:105AD00003EB820153F82240084A14604968084ADF
:105AE000116000EB400003EB80039A68054B1A60DD
:105AF0005DF8044B704700BFE4070020E00700207A
:105B0000DC070020D807002010B504464FF0000E37
:105B1000704614E04FEA5C0C0133DBB2072B0AD865
:105B200080EA0C0212F0010F4FEA5000F2D080F030
:105B30008C00C0B2EEE70EF1010E5FFA8EFE8E45CC
:105B400003D214F80EC00023E8E710BD002307E0DD
:105B500003EB43018A001649002088500133DBB271
:105B6000022BF5D9134BDA6842F00102DA60042205
:105B70009A621A6842F080021A600F4B4FF49652F4
:105B80001A804FF47A725A8040F6D8629A800B4B92
:105B90003C221A8040F28A225A8096229A80084B30
:105BA0000A221A806E225A804FF416729A80704729
:105BB000E4070020001000403C08002034080020CA
:105BC0002C080020022800D9704730B587B00D4658
:105BD00014460E4B00EB400203EB820143F82250C7
:105BE0008C6022044A600022A1B2284605F031FFF1
:105BF000019411230293002303930223049301A928
:105C0000284605F03BFE07B030BD00BFE40700208A
:105C1000054B00221A705A709A70DA701A715A7114
:105C20009A71DA71704700BF14080020F8B50C466D
:105C300000EB40052A4951F8251000294BD01646A3
:105C40001F46002B18BF002A47D0264B1D7825B1D0
:105C50000125254B1D702846F8BDFFF735FFFFF7DE
:105C6000D7FF224B1E60224B1F60224B55221A7019
:105C700022785A7062789A70A278DA70E2781A7193
:105C800022795A7162799A71A279DA71E2791A727B
:105C9000BE225A720023184A1370184A1370184A09
:105CA0001370184A1370184A0A211170174A0921F3
:105CB0001170174A1370174A13700122164B1A708D
:105CC000084B1A70154B1988154BD9621968114386
:105CD00019605A61BDE70225BBE70525B9E700BF9A
:105CE000E4070020080800204208002010080020D7
:105CF0000C0800202008002045080020470800204C
:105D000046080020430800204B0800204A080020D5
:105D10004908002048080020440800203C080020D2
:105D20000010004010B500EB40021C4B53F822302D
:105D3000002B30D01A4B1C7824B10124194B1C7055
:105D4000204610BDFFF7C0FEFFF762FF164BCC22C6
:105D50001A7044225A700023144A1370144A1370A4
:105D6000144A1370144A1370022214490A70144919
:105D70000B7014490B7014490B70144B1A700121ED
:105D8000074B1970124B1A88124BDA621A680A43D1
:105D90001A605961D2E70224D0E700BFE40700206F
:105DA00008080020420800202008002045080020A4
:105DB0004708002046080020430800204B08002028
:105DC0004A08002049080020480800204408002014
:105DD0003C080020001000401F4B1B7813B91F4BDC
:105DE00003221A701E4B1B78E3B1012B20D170B532
:105DF0001C4B1D6895B11C480378427843EA022386
:105E00001CB2067A0821FFF77FFE864214D0174B9A
:105E10001B6800221A70134B00221A60144B0022D8
:105E20001A7070BD134B104A92E8030083E8030018
:105E30000F4B00221A70704704EB84035B001A4674
:105E4000002B06DB12112A80084B1B6801221A70F6
:105E5000E1E703F10F02F5E74308002042080020C4
:105E60004408002010080020140800200C0800201E
:105E700008080020D007002010B5904B00221A61BE
:105E80008F4B1B78012B20D0022B00F08280002B3F
:105E900040F0AE808B4B1B78012B00F0E080022B92
:105EA00000F0E38023B9884A126888490968916143
:105EB0000133DBB2834A1370022B00F2E580844A7F
:105EC00032F813207D4BDA6292E0824B1B78012B73
:105ED00013D0022B27D023B97B4A12687B4909686B
:105EE00091610133DBB27B4A1370022B21D87A4ACD
:105EF00032F81320714BDA627AE0784A12787849E6
:105F00008A5C784909780A4112F0010F05D06E4A7F
:105F10001268754909689161E3E76B4A12686B4939
:105F200009689161DDE7684A12686F490968916103
:105F3000D7E7684B00221A70674B1A885F4BDA620A
:105F4000684A13780133DBB21370072B50D913461C
:105F500000221A70614A13780133DBB21370634A6E
:105F60001278934244D35D4B00221A70604B1B7829
:105F70003BB1534B02221A705E4B1A884F4BDA62C8
:105F800036E04E4A136823F001031360FFF724FF45
:105F90002EE0504B1B78012B2BD0022B2FD023B996
:105FA000494A12684949096891610133DBB2494A9B
:105FB0001370022B15D9134600221A70494A137820
:105FC0000133DBB21370072B0BD9134600221A7072
:105FD000424A13780133DBB21370454A1278934278
:105FE00030D23C4B1A78434B33F81220334BDA62F1
:105FF00010BD354A12683C4909689161D5E7324ABB
:1060000012681169384A126811420CD0334A10786C
:10601000394C225C334991F800C0012101FA0CF19E
:106020000A432254C1E72D4A1078334C215C2D4A93
:1060300092F800C0012202FA0CF2D24352B20A4096
:106040002254B2E71D4A136823F001031360FFF7DF
:10605000C3FE0023214A1370284A1370C1E71A4A6D
:10606000126821490968916122E7174A126811698B
:106070001D4A1268114203D0214A0021117017E70E
:106080001F4A0121117013E700230E4A1370114AB1
:1060900013701B4B1B783BB1094B01221A700E4B3E
:1060A0001A88064BDA62A3E7044A136823F0010357
:1060B0001360124B00221A709AE700BF00100040D4
:1060C0004508002047080020E0070020DC070020EA
:1060D0003C08002046080020340800204808002022
:1060E0002008002049080020D80700204B08002085
:1060F0004A0800202C08002014080020080800206E
:10610000430800200023C3617047D0ED027A70EE8F
:10611000677A038807EE103AB8EEC77AC7EE876A47
:1061200080ED020A80ED010A90ED036A20EE466AD6
:1061300080ED066AD0ED077AD0ED045A65EE805AFC
:1061400027EE257A77EEC77AC0ED077A90ED057ACB
:1061500026EEC77A80ED087A76EE277A77EE277AF0
:10616000C0ED097AD0ED0C6AF4EEE67AF1EE10FAA1
:106170000ADDC0ED0A6A76EEC66A76EEC76AC0ED41
:10618000076A90ED0A0A7047D0ED0B6AF4EEE67AE2
:10619000F1EE10FA08D5C0ED0A6A76EEC66A76EE20
:1061A000C76AC0ED076AECE7C0ED0A7AE9E70000CC
:1061B00030B589B00446184D00226946284606F0DD
:1061C00070FD002205A9284606F091FD9DF81730C4
:1061D00003F5FA63ADF81E309DF815308DF81C30CC
:1061E0009DF816308DF81B309DF800308DF8183072
:1061F0009DF801308DF819309DF802308DF81A3075
:106200009DF814308DF81D3006AB03CB2060616023
:10621000204609B030BD00BF9416002010B588B0EC
:106220006B4683E80300BDF8063030338DF81F302D
:106230009DF804308DF81D309DF803308DF81E3028
:106240009DF805308DF81C30114C002207A920461E
:1062500006F0CCFC9DF800308DF808309DF8013038
:106260008DF809309DF802308DF80A3000228DF843
:106270000B200592069202A9204606F051FC43F23B
:10628000F2220121204606F050FD08B010BD00BFEB
:106290009416002000B585B002900023039302A855
:1062A00008F0BAF903688DF8023043688DF80130C0
:1062B00083688DF80030C3688DF8033003690133BB
:1062C0008DF80430436903F26C73ADF806306B4609
:1062D00093E80300FFF7A2FF05B05DF804FB0000A0
:1062E0000023054A1380054A1370054A1370054AB6
:1062F0001370054A13707047500800204E080020A4
:106300004D080020400A00204C08002010B53A4BF0
:106310001B88002B53D0394B1B78374A1088834297
:106320004FD8354B1B88142B4FD8334A1388013371
:106330001380334B1A78334B1B789A4204D30023D3
:106340002F4A13702C4A138010BD04EB44039A00AB
:106350002D4B1344DB7A052B27D80134294B1B78AE
:10636000A342D8DD04EB44039A00274B1344DA7AA6
:106370000132DA72B3F9041001F596739BB240F260
:106380000E629342E1D804EB44039A001E4B13447F
:106390009B79012BD9D11C4B13440022DA7259800E
:1063A0000122188900F0A6FBCFE7174B1344002207
:1063B000DA72B3F90210188900F09CFBCDE70024D3
:1063C000CCE7C0B2FFF7AEFCABE70D4C23780E482C
:1063D00003EB43029100421810F801E01046931DB0
:1063E00004320A4901EBCE01807AFFF71FFC2378C3
:1063F0000133237099E700BF500800204C080020AB
:106400004E080020400A0020540800200000002010
:1064100008B5074B1B78022B01D9012008BDFFF7F7
:10642000D1FB034A1378013313700020F6E700BF55
:106430004C0800200F4B1B78282B18D810B50E4C99
:1064400003EB430E04EB8E0C04F82E004FF40040D7
:10645000ACF8020000208CF80600ACF808108CF8AC
:106460000A208CF80B000133024A137010BD012082
:10647000704700BF400A0020540800200023092B69
:1064800005DC094A32F833200AB10133F7E7092B5A
:1064900008DC054A4FF0010C22F833C002EBC303BD
:1064A00058805960704700BF4C0A00200023092B18
:1064B00010DC094A02EBC3025288824201D0013348
:1064C000F5E7054A02EBC30040680170002122F89D
:1064D00033107047704700BF4C0A00200023092B7F
:1064E00010DC094A02EBC3025288824201D0013318
:1064F000F5E7054A02EBC30040680180002122F85D
:1065000033107047704700BF4C0A00200023092B4E
:1065100010DC094A02EBC3025288824201D00133E7
:10652000F5E7054A02EBC30040680160002122F84C
:1065300033107047704700BF4C0A002000B583B08D
:1065400000238DF8003038238DF80130ADF80200BB
:106550000B680193034B1B680BB16846984703B067
:106560005DF804FB440A002098B900B583B000220E
:106570008DF8002039228DF80120ADF80200652346
:106580000193044B1B680BB16846984703B05DF854
:1065900004FB7047440A0020034B00221A60034B9F
:1065A00001221A60704700BF440A0020480A0020F8
:1065B00008B54378313B082B47D8DFE803F00510D6
:1065C0001B26464646313C00214B1B680BB9002078
:1065D0003CE041684088FFF751FF002036E01C4B4B
:1065E0001B680BB9002031E001794088FFF75EFF9E
:1065F00000202BE0164B1B680BB9002026E0818899
:106600004088FFF76BFF002020E0114B1B680BB99F
:1066100000201BE041684088FFF778FF002015E06C
:106620000B4B1B680BB9002010E041684088FFF756
:1066300085FF00200AE0064B1B680BB9002005E02F
:106640004088FFF791FF002000E0012008BD00BF57
:10665000480A0020014B1860704700BF440A002020
:1066600010B504468378082B00F2DB80DFE813F0D6
:106670000900170025004A006F009100B400E600F1
:10668000D800037B2BB901220189406805F0E1F9AC
:10669000C7E000220189406805F0DBF9C1E0037B17
:1066A0002BB900220189406805F0D3F9B9E0012235
:1066B0000189406805F0CDF9B3E00388322B13D887
:1066C000037B5BB900220189406805F0C2F9238889
:1066D000632B40F2A68000232380A2E001220189DF
:1066E000406805F0B6F9F2E7037B2BB90122018976
:1066F000406805F0AEF9EAE700220189406805F03C
:10670000A8F9E4E703880A2B13D8037B5BB90022BE
:106710000189406805F09DF92388132B40F28180A0
:10672000002323807DE001220189406805F091F972
:10673000F2E7037B2BB901220189406805F089F952
:10674000EAE700220189406805F083F9E4E703885D
:10675000052B0DD8037B2BB900220189406805F079
:1067600078F95EE001220189406805F072F958E08D
:10677000037B43B901220189406805F06AF90023CF
:10678000A37023804DE000220189406805F061F983
:10679000F5E70388B3F5967F0DD8037B2BB900226C
:1067A0000189406805F055F93BE001220189406804
:1067B00005F04FF935E0037B43B9012201894068B8
:1067C00005F047F90023A37023802AE00022018905
:1067D000406805F03EF9F5E70388042B12D8037BE7
:1067E00053B900220189406805F033F92388632BEF
:1067F00017D90023238014E001220189406805F0A5
:1068000028F9F3E7037B2BB901220189406805F0E1
:1068100020F9EBE700220189406805F01AF9E5E765
:1068200039B923884FF6FF72934201D00133238098
:1068300010BD0189406805F011F9F2E70388092BC2
:1068400012D8037B53B900220189406805F001F991
:106850002388C72BE5D900232380E2E701220189A1
:10686000406805F0F6F8F3E7A3F10A0292B2272A8E
:106870000DD8037B2BB901220189406805F0E9F8A6
:10688000E6E700220189406805F0E3F8E0E7A3F1BC
:10689000320292B2092A0DD8037B2BB9002201895A
:1068A000406805F0D6F8D3E701220189406805F079
:1068B000D0F8CDE7A3F13C0292B2272A0DD8037B92
:1068C0002BB901220189406805F0C3F8C0E7002216
:1068D0000189406805F0BDF8BAE7A3F1640292B2FD
:1068E000312A0DD8037B2BB900220189406805F0BD
:1068F000B0F8ADE701220189406805F0AAF8A7E7E2
:10690000963B9BB2312BA3D8037B2BB90122018983
:10691000406805F09EF89BE700220189406805F079
:1069200098F895E710B584B0EC468CE80F00069C0B
:106930009CE80F0084E80F0000212046FFF790FE3E
:1069400004B010BD30B587B0054600238DF80A307D
:10695000ADF808304368049303680393037A8DF815
:106960001430204B009302AC94E80F00FFF7DAFFDD
:106970002B690493EB6803932B7D8DF814301A4B2D
:10698000009394E80F00FFF7CDFFEB690493AB6928
:10699000039395F820308DF81430144B009394E84D
:1069A0000F00FFF7BFFFAB6A04936B6A039395F880
:1069B0002C308DF814300E4B009394E80F00FFF745
:1069C000B1FF6B6B04932B6B039395F838308DF804
:1069D0001430084B009394E80F00FFF7A3FF07B0B3
:1069E00030BD00BFDC0A0020CC0A0020BC0A002019
:1069F000AC0A00209C0A002008B500210948FFF7D6
:106A00002FFE00210848FFF72BFE00210748FFF763
:106A100027FE00210648FFF723FE00210548FFF767
:106A20001FFE08BDDC0A0020CC0A0020BC0A0020A2
:106A3000AC0A00209C0A0020044B9B78834203D0C0
:106A4000024B987000221A80704700BFCC0A0020C9
:106A5000044B9B78834203D0024B987000221A802B
:106A6000704700BFAC0A0020044B9B78834203D0E0
:106A7000024B987000221A80704700BFDC0A002089
:106A8000044B9B78834203D0024B987000221A80FB
:106A9000704700BF9C0A0020002208E0064B00213E
:106AA00003F8221003EB8203597059800132B2F5CA
:106AB000C87FF3DB704700BFEC0A0020B0F5C87F49
:106AC0000ED20B4B13F8203023B919B10B8843F0C9
:106AD00001030B80064B03EB8003B3F90200704700
:106AE00019B10B8843F001030B800020704700BFF1
:106AF000EC0A0020B0F5C87F05D2034B03F8202034
:106B000003EB800359807047EC0A002070B50546FE
:106B10000E46102007F0B2FB044605FB06F007F016
:106B2000ADFB2060E6800023238163812373257100
:106B3000204670BD60B1027B2AB9028943899A421E
:106B400004D0002000E00020C0B270470120FBE725
:106B50000120704770B5A0B10C46064672B6FFF72B
:106B6000E9FF054618B162B60125284670BD3368B5
:106B70007189327902FB0131204608F0D0F962B602
:106B8000F3E70125F1E7A0B110B5044672B6FFF7AF
:106B9000D1FF58B963890133E28893FBF2F102FB1C
:106BA000113363810023237362B610BD62B60120E6
:106BB000FBE70120704770B5F0B10D46044672B690
:106BC000FFF7B8FF064618B162B60126304670BD21
:106BD00023686189227902FB0131284608F09FF978
:106BE00063890133E28893FBF2F102FB1133638185
:106BF0000023237362B6E9E70126E7E718B310B56F
:106C0000044603680089227902FB003008F087F906
:106C1000237B3BB163890133E28893FBF2F102FBF2
:106C20001133638123890133E28893FBF2F102FB84
:106C300011339BB223816289934214BF0023012345
:106C40002373002010BD01207047000008B50346E3
:106C500009498A6842F480528A60B0F5FA4F01D936
:106C60004FF4FA430548064A026006224260DB08F8
:106C7000836004F00BFF08BD002004E0B81600207C
:106C80000030004008B5024804F034FF08BD00BFE2
:106C9000B8160020F8B50446038803F47F63057F27
:106CA000280200B294F81DC04CEA0000A67F310211
:106CB00009B294F81FE04EEA010194F82020120274
:106CC00012B294F821703A43B3F5A26F1DD00DD9DA
:106CD000B3F5AA6F27D0B3F5C06F15D12048FFF7E1
:106CE000B9FC04F11C00FFF763FC0DE0B3F5887FED
:106CF00006D0B3F5447F07D1C0B200F043FE03E0F5
:106D0000D2B280B2FFF7F6FEF8BD4FEA0C4C4CEA67
:106D1000056C4CEA062C4EEA0C00FFF7BBFA00208B
:106D2000FFF796FEF0E7FEF781FA8542ECD1637F2C
:106D3000012B08D0022B0CD0002BE5D166210020BE
:106D4000FEF77EFBE0E7074B19680120FEF778FBB2
:106D5000DAE740F203110220FEF772FBD4E700BF2E
:106D600075540008301100202DE9F04F95B0002532
:106D7000CB4B1D7002F0A6FC02F014F9FEF7E6FE04
:106D8000FFF7AEFAFFF788FEC64801F0A5FC032125
:106D9000C548FEF735FE0320FEF742FA00F0B8FDC5
:106DA0000722C249C248FEF7C7F900F063FC01F0B0
:106DB000F1FF40F6B830FFF749FF01F047F901F065
:106DC00089FD00F0DDFAFFF7E7FB4FF4005306936F
:106DD000B84E059601248DF81C404FF400730993BA
:106DE000B54B08938DF828404FF480720C920B93AA
:106DF0008DF8344008230F93B04B0E938DF840402C
:106E00004FF48043129311968DF84C4005A8FFF77C
:106E100099FD0220FFF728FE2046FFF719FEADF886
:106E200004504FF00A0AADF806A08DF808408DF81E
:106E30000A404FF4FA78ADF8108002278DF80970F7
:106E40008DF80B5001A8FEF7A5FBADF804404FF0FC
:106E50000B09ADF806908DF808408DF80A40ADF8A2
:106E6000108003238DF809308DF80B5001A8FEF730
:106E700091FBADF804704FF00C0BADF806B08DF837
:106E800008408DF80A40ADF8108004238DF80930D1
:106E90008DF80B500DEB0300FEF77CFB8022314692
:106EA0002846FFF7B5FA402231462046FFF7B0FAF0
:106EB0002A4678212520FFF7BDFA2A4667211120AE
:106EC000FFF7B8FA2A4668211220FFF7B3FA2A46DC
:106ED00069211A20FFF7AEFA2A466A211B20FFF724
:106EE000A9FA2A466B215846FFF7A4FA2A466C21D4
:106EF0000D20FFF79FFA2A466D210E20FFF79AFA20
:106F00002A466E211F20FFF795FA224664211C2095
:106F1000FFF790FA224665211320FFF78BFA2246ED
:106F200066211020FFF786FA224672215046FFF7AD
:106F300081FA224673210F20FFF77CFA2246742142
:106F40004846FFF777FA224675210720FFF772FAC5
:106F500022466F212046FFF76DFA224670213846FF
:106F6000FFF768FA4FF47A717820FEF7CFF940F610
:106F7000B8315020FEF7CAF940F6B8315120FEF77B
:106F8000C5F940F6B8315220FEF7C0F940F6B831E5
:106F90005320FEF7BBF940F6B8315A20FEF7B6F998
:106FA00040F6B8315B20FEF7B1F940F6B8315C200D
:106FB000FEF7ACF940F6B8315D20FEF7A7F940F6D0
:106FC000B8316420FEF7A2F940F6B8316520FEF72B
:106FD0009DF940F6B8316620FEF798F940F6B831D1
:106FE0006720FEF793F940F6B8316820FEF78EF976
:106FF00040F6B8316920FEF789F940F6B8316A20C9
:10700000FEF784F940F6B8316B20FEF77FF940F6C1
:10701000B8316C20FEF77AF940F6B8316D20FEF7F2
:1070200075F940F6B8316E20FEF770F940F6B831C8
:107030006F20FEF76BF940F6B8317020FEF766F965
:1070400040F6B8317120FEF761F940F6B831722090
:10705000FEF75CF940F6B8317320FEF757F940F6B9
:10706000B8317420FEF752F940F6B8317520FEF7BA
:107070004DF940F6B8315620FEF748F940F6B831E0
:107080005520FEF743F940F6B8316220FEF73EF98D
:1070900040F6B8316320FEF739F915B0BDE8F08F3E
:1070A0002D11002078150020C8160020F0160020B1
:1070B000381700200008004800040048001C004861
:1070C00000B58BB0012000F077FB00F01BF900F059
:1070D000BBF9FEF75FFB01224FF402710B20FFF7B3
:1070E00009FDFEF7FDFA02F093FB01A8FEF7C5F8D3
:1070F0000128F8D101A8FFF7CDFDF6E700B583B070
:107100006846FFF755F89DF803300A4A12789A420C
:1071100006D1094A13680133136003B05DF804FB1C
:10712000044A137001F0BAFE00F03AFC01F062F973
:10713000EFE700BF2C1100203011002008B510B17E
:10714000012805D008BD0129FCD100F09FF9F9E71D
:10715000012904D000F09EFF00F08AF9F2E700F068
:10716000ADFF054B1B78012BECD10020024B1870B2
:107170000146FEF72EF9E5E72D11002008B50B2892
:1071800006D00C2807D00A2801D100F08BF908BDE1
:1071900000F05AF9FBE70A4B1B7843B1012BF6D1FB
:1071A0000020074B18700146FEF713F9EFE7044B78
:1071B00001221A704FF416710220FEF70AF9E6E771
:1071C0002D110020022802D0042800D0704708B5F5
:1071D00001F07AFE08BD000008B5C0F16400FDF7BB
:1071E000B1FA3BA3D3E90023FDF740FCFDF76EFDA8
:1071F00000EE100A09F0F0F9DFED2F7A60EE277A41
:1072000017EE900AFDF7B0FA27A3D3E90023FDF7A4
:107210002DFCFDF75BFD07EE900A284B1860B0EEE1
:10722000087A77EEC77A264BC3ED007AF5EEC07A7E
:10723000F1EE10FA35D4224B93ED007ADFED217A8E
:10724000B4EEE77AF1EE10FA01DDC3ED007A1C4BE3
:107250001868FDF789FA16A3D3E90023FDF7DCFAD5
:1072600000224FF08043FDF721F9FDF72FFD07EED7
:10727000900A154B1860B2EE047A67EE877A17EE23
:10728000900AFDF771FA41EC100B09F0DFF951ECAF
:10729000100BFDF7D3FC00B20C4B188000F004FB80
:1072A00008BD00221A60C6E7182D4454FB2109408E
:1072B000176CC1166CC1B63F00003443401100206A
:1072C0003C1100200000B44238110020361100208B
:1072D00033333333336359407047000008B500201F
:1072E000FFF77AFF044B01221A700023034A138030
:1072F000034A138008BD00BF34110020461100204E
:107300004411002010B5012204210F4804F0A1FB14
:107310000E4C01224FF48051204604F09AFB0022CB
:107320004FF40061204604F094FB00224FF480618A
:10733000204604F08EFB01220821054804F089FB59
:10734000FFF7CCFF10BD00BF000C0048000800484C
:107350000004004810B550280AD9074B50221A8063
:10736000054C2088FFF738FF2288044B1A8010BD97
:10737000014B1880F4E700BF4411002046110020A3
:10738000074B084A1A63084ADA6205221A804FF04E
:107390007F52DA60054A1A61054A5A61704700BF98
:1073A0004811002000000C42000030C10AD7233CE5
:1073B0000000504108B5042807D8DFE800F0030AB0
:1073C00015242E00194B00221A70194B00221A8026
:1073D00008BD0020174B1880FFF7BCFFFFF77EFFAA
:1073E000124B01221A70F0E71348FEF78BFE46207D
:1073F000104B1880FFF7AEFF104B114A1A600B4B71
:1074000002221A70E1E70F4B00221A800B4B0C4A44
:107410001A60064B03221A70D7E70920054B188023
:10742000FFF798FF014B04221A70CEE78811002065
:107430008411002086110020481100207C110020BA
:10744000000048438211002008B5074B01221A7042
:10745000064B1B883B2B03D81046FFF7ABFF08BD3C
:107460000320FFF7A7FFFAE7891100208011002011
:1074700008B5054B1B78033BDBB2012B00D908BDD7
:107480000220FFF797FFFAE78811002008B5044BA8
:107490001B78012B00D008BD0220FFF78BFFFAE715
:1074A0008811002008B500200A4B1870FFF782FFF2
:1074B000094B1B88312B05D85020074B1880FFF74C
:1074C00049FF08BD0020044B1880FFF743FFFFF77A
:1074D00005FFF6E789110020861100201B4B1B8851
:1074E000042B03D80133194A1380704700B583B0C9
:1074F000164B01221A800DF106017120FFF7DEFA0A
:10750000FDF720F90022124BFDF7B0FAFDF7DEFB84
:1075100000EE100A0F4BD3ED007A30EE670A0E48EA
:10752000FEF7F3FDBDEEC00A10EE103A1BB21433A5
:107530001BB2372B03DC082B02DC092300E03723C6
:10754000064A138003B05DF804FB00BF82110020DF
:10755000000024407C1100204811002086110020EA
:1075600000B583B00DF106017120FFF7A7FA3B4B80
:1075700083FB0023C017C0EBA30080B2384B1880F8
:10758000384B1B8842F20F72934202D80133354ABE
:107590001380354B1B78042B08D8DFE803F0030F6A
:1075A00018344700314B1B78012B02D003B05DF833
:1075B00004FB2F4B1888FFF7CDFEF7E72B4B1B780A
:1075C000012BF3D12A4B1888FFF7C4FEEEE7FFF733
:1075D00085FF264B1B78012B0CD0214B1B88C82B19
:1075E0000DD8204B1B88B3F5E16FDFD30320FFF7E5
:1075F000E1FEDBE71E4B1888FFF7ACFEEDE703204A
:10760000FFF7D8FEEDE7FFF769FF184B1B78012B5A
:1076100007D0134B1B888B2BC8D80420FFF7CAFE5A
:10762000C4E7134B1888FFF795FEF2E7A0280CD8A3
:107630000B4B1B884F2B0CD90C4B1B78012BB5D156
:107640000B4B1888FFF786FEB0E70320FFF7B2FE6A
:10765000EEE70120FFF7AEFEEEE700BF6766666665
:107660008011002084110020881100208911002041
:1076700086110020054B60221A6000225A609A6031
:10768000DA601A615A619A61704700BF8C1100205C
:1076900010B5044610F0010F32D001224FF4805192
:1076A0002C4804F0D6F914F0020F30D001224FF428
:1076B0000051284804F0CDF914F0040F2ED0012217
:1076C0004FF48041234804F0C4F914F0080F2CD083
:1076D000012204211F4804F0BCF914F0100F2AD035
:1076E00001224FF480611B4804F0B3F914F0200F1D
:1076F00028D001224FF40061164804F0AAF910BD09
:1077000000224FF48051134804F0A3F9CBE7002284
:107710004FF400510F4804F09CF9CDE700224FF4DC
:1077200080410C4804F095F9CFE700220421094874
:1077300004F08FF9D1E700224FF48061054804F08E
:1077400088F9D3E700224FF40061024804F081F980
:10775000D5E700BF0004004808B530B10122082178
:107760004FF0904004F075F908BD002208214FF059
:10777000904004F06EF9F7E708B530B1012204211A
:107780004FF0904004F065F908BD002204214FF04D
:10779000904004F05EF9F7E708B530B1012202210C
:1077A0004FF0904004F055F908BD002202214FF03F
:1077B000904004F04EF9F7E708B528B101222021E6
:1077C000044804F046F908BD00222021014804F0D5
:1077D00040F9F8E70004004838B504460121144890
:1077E00004F030F9002C03DB642C02DD642400E09B
:1077F00000244FF46B7303FB04F40E4B83FB042350
:10780000E417C4EB63140C4D6C600C4C042120464F
:1078100005F086FE04222946204605F039FD20B9F0
:107820000421064805F0E0FD38BD01F00DFDF7E745
:10783000000400481F85EB518C11002048160020E1
:1078400038B504460121144804F0FCF8002C03DB91
:10785000642C02DD642400E000244FF46B7303FB0E
:1078600004F40E4B83FB0423E417C4EB63140C4DA8
:107870006C600C4C0021204605F052FE0022294687
:10788000204605F005FD20B90021064805F0ACFDB5
:1078900038BD01F0D9FCF7E7000400481F85EB5123
:1078A0008C1100204816002038B5044601211448E8
:1078B00004F0C8F8002C03DB642C02DD642400E033
:1078C00000244FF46B7303FB04F40E4B83FB04237F
:1078D000E417C4EB63140C4D6C600C4C082120467B
:1078E00005F01EFE08222946204605F0D1FC20B9ED
:1078F0000821064805F078FD38BD01F0A5FCF7E742
:10790000000400481F85EB518C1100204816002010
:107910000F4B5A221A8000230E4A13800E4A3F2131
:1079200011800E4A022111700D4A13800D4A1380F6
:107930000D4A13800D4A13800D4A13800D4A1360BF
:107940000D4A13700D4A13800D4A1370704700BF23
:10795000CC110020D4110020D2110020D011002021
:10796000CE110020B6110020CA110020C81100203D
:10797000B4110020B0110020AE110020AC11002085
:10798000A8110020012802D0034B19807047034B37
:1079900001221A70F8E700BFAC110020AE110020E0
:1079A0000023034A1380034A1370034A137070477D
:1079B000B4110020AE110020D111002010B5002418
:1079C000034B1C802046FFF763FE024B1C8010BD5A
:1079D000D4110020CE11002000231946184605E0DE
:1079E0000F4A32F81C2011440133DBB2052B09D8B1
:1079F0009C460C4A12881A4112F0010FF0D0013057
:107A000000B2EDE700EB80004300074A1380074B0C
:107A1000A3FB0131C1F3CF01054B1980704700BFB3
:107A2000BC110020D4110020CE110020CDCCCCCC34
:107A3000B811002008B51D4BB3F90030362B20DCFF
:107A40001B4B1B88BBB91A4A138843F040039BB2F7
:107A500013805B081380164B1888164A1288104052
:107A600080B21880C0B2FFF713FEFFF7B5FF08BD64
:107A70005B000F4A13800E4B1B8813F0200FF7D0CA
:107A8000E1E70B4B1B885BB9094A13885B009BB28B
:107A9000138043F001031380DDE75B08044A138081
:107AA000034B1B8813F0010FF7D0EDE7AA1100205C
:107AB000D4110020D211002008B5194BB3F90030C1
:107AC000362B1CDC174B1B889BB9164A13885B00AE
:107AD0001380144B1888144A1288104080B2188002
:107AE000C0B2FFF7D5FDFFF777FF08BD5B000D4A79
:107AF00013800C4B1B8813F0200FF7D0E5E7094BE0
:107B00001B883BB9074A13885B081380E1E75B08D1
:107B1000044A1380034B1B8813F0010FF7D0F1E7E1
:107B2000AA110020D4110020D211002010B5C0F1FC
:107B30000A02244BB3F900309A4211DA224A138820
:107B4000013313800023214A1380214A13701E4BF6
:107B50001B88072B1ED81D4B1B88072B22D810BD56
:107B600040420133984205DC0023174A1380174A2C
:107B70001380ECE7154A138801331380124B00225F
:107B80001A80144BB3F90030002BE0D1104B0222C5
:107B90001A70DCE700240C4B1C80FFF74BFF0C4BEA
:107BA0001C70D8E70024094B1C80FFF785FF084BA9
:107BB0001C70084BB3F90030002BD0D1044B0222CB
:107BC0001A70CCE7B6110020CA110020C81100209D
:107BD000D0110020CE1100202DE9F04784B0012003
:107BE000FDF7D6FAFCF7AEFDC5A3D3E90023FCF7F9
:107BF00013FEFDF74BF84FF47A7505FB00F39B0875
:107C0000C14EA6FB0323C3F38F03C04C2380022085
:107C1000FDF7BEFAFCF796FDB9A3D3E90023FCF704
:107C2000FBFDFDF733F805FB00F39B08A6FB0323E0
:107C3000C3F38F0363800320FDF7AAFAFCF782FDEC
:107C4000AFA3D3E90023FCF7E7FDFDF71FF805FB21
:107C500000F39B08A6FB0323C3F38F03A380042038
:107C6000FDF796FAFCF76EFDA5A3D3E90023FCF718
:107C7000D3FDFDF70BF805FB00F39B08A6FB0323E0
:107C8000C3F38F03E3800520FDF782FAFCF75AFD6A
:107C90009BA3D3E90023FCF7BFFDFCF7F7FF05FB2F
:107CA00000F39B08A6FB0323C3F38F032381062065
:107CB000FDF76EFAFCF746FD91A3D3E90023FCF72C
:107CC000ABFDFCF7E3FF05FB00F39B08A6FB03639A
:107CD000C3F38F036381FFF77FFE01228C4B19787A
:107CE0005020FEF707FF8B4C0122B4F90010512001
:107CF000FEF700FF0122884BB3F900105220FEF777
:107D0000F9FEB4F900400DF10E010B20FEF7D6FE8E
:107D100004FB00F0814B83FB0023C017C0EBA300E2
:107D200005FB00F07E4BA3FB00307E4A136803EB9B
:107D3000D0231360AB4207D97B490A8801320A80FD
:107D4000A3F57A73774A1360764B1B68B3F57A7F95
:107D500007D975490A8801320A80A3F57A73714AF6
:107D600013600122704BB3F900105320FEF7C2FEDE
:107D700001A8FEF71DFA9DF808707B1FDBB2032BEC
:107D800000F2E680694B46221A800023ADF80E30DF
:107D90000DF10E017820FEF791FE80460DF10E01E7
:107DA0006E20FEF78BFEDFF8749189FB0023C0176D
:107DB000C0EBA3005E4B18800DF10E010A20FEF708
:107DC0007DFE04460DF10E010D20FEF777FE0646FE
:107DD00089FB0023C517C5EBA3052DB20DF10E01DC
:107DE0000E20FEF76BFE89FB0029C317C3EBA90326
:107DF0000FFA83F90DF10E012D20FEF75FFE82468A
:107E0000BDF80E30002B40F0A780622C05DD25B9AF
:107E10000123484A1370484A13705F2C04DD464B17
:107E20001B78012B00F09E802A2C0CDD3B1FDBB25F
:107E3000052B08D89DF80430083BDBB20C2B02D888
:107E40003E4B01221A70272C09DD043FFFB2052F9B
:107E500005D89DF80430083BDBB20C2B02D9374B18
:107E600000221A704FF40041354803F0EBFD012861
:107E70007CD00121334803F0E5FD00287CD00420AC
:107E8000FDF7DAF900287FD0B8F5257F80F28280EF
:107E9000274BB3F90020254BB3F900309A427FDC21
:107EA0005E2C0ADC234B00221A70274BB3F90030FA
:107EB0001BB9224B1B78002B78D01E4B1B78012B53
:107EC0007AD01E4B1B78012B00F092801E4BB3F929
:107ED0000030002B00F0A680174A1278002A40F0EC
:107EE000A180002B40F398805B42184A13804846DB
:107EF000FFF71CFE064B0A221A7042E0AFF3008027
:107F00000000000000E2E93F310CC330BC1100204A
:107F1000D0110020CE110020B811002067666666DF
:107F2000C5B3A291B0110020B4110020CC110020E3
:107F3000AA110020D1110020AE110020A8110020AC
:107F40000008004800040048AC110020B6110020D1
:107F5000374B5A221A8018E7364B07221A70FFF760
:107F60002DFD0EE0344B01221A705DE7314B0522E6
:107F70001A70FFF723FD04E02E4B04221A70FFF75E
:107F80001DFD04B0BDE8F0872A4B08221A70FFF7E8
:107F900015FDF6E7274B06221A70FFF70FFDF0E7F5
:107FA000244B01221A70FFF709FDEAE7214B032257
:107FB0001A70FFF703FD80E7602C0DDD132E13DC34
:107FC00042F20F739A4503DD1C4B5F221A8007E0D3
:107FD0001A4B00221A8003E0184B4FF6FE721A80EB
:107FE0004846FFF7A3FDCCE7144B0F221A80F7E7B2
:107FF000134BB3F90030362B3FF768AF114B18889D
:1080000000F03800104B1880FFF742FBFFF7E4FC4C
:10801000084B0B221A70B4E7064B03221A70FFF7C5
:10802000CDFCAEE7034B03221A70FFF7C7FCA8E7AD
:10803000CC110020D0110020D1110020B611002059
:10804000AA110020D2110020D41100200023094AD7
:108050001370094A1370094A1370094A06211170F6
:10806000084A1370084A1370084A1360084A1370CC
:10807000704700BFEC110020EA110020EB11002036
:10808000E8110020E9110020E4110020E011002097
:10809000D611002008B5074B1B7813B9064B1B7887
:1080A00003B908BD034B01221A701E210220FDF7FF
:1080B00090F9F6E7D6110020EC11002008B5064B28
:1080C0001B78012B00D008BD0020034B187001461F
:1080D000FDF77FF9F7E700BFD61100202DE9F04F3B
:1080E00087B00023ADF816300DF116016420FEF7BD
:1080F000E5FC0546B64E86FB00234FEAE079C9EB66
:10810000A3090DF116017120FEF7D8FC824686FB0B
:1081100000234FEAE078C8EBA3080DF116016520B3
:10812000FEF7CCFC07460DF116016620FEF7C6FCF3
:1081300004460DF116016720FEF7C0FC02900DF118
:1081400016017520FEF7BAFC0DF116016E20FEF740
:10815000B5FC01900DF116016920FEF7AFFC86FB1E
:108160000036C317C3EBA606BDF81610002976D15A
:108170000FFA89F90FFA88F8834636B2E71BBAB2CC
:108180003BB20393934B1B78013BDBB2012B23D90A
:10819000914A13680B441360904AA2FB0323DB0A45
:1081A0008F4F3B80012209B26220FEF7A3FC01221F
:1081B000B7F900106320FEF79DFC854B83FB042379
:1081C000E417C4EBA30424B2824B1B78032B10D812
:1081D000DFE803F00958729002EB4203C2EBC302DE
:1081E000920091B2D4E77F4B00221A70B5F5167F4A
:1081F00038DA7D4B00221A70019BB3F5707F02DBE9
:10820000794B01221A7040F265339D4202DD764BB4
:1082100002221A706F4B1B78013BDBB2012B40F23C
:108220008D80714B1B78022B00F09B80032B00F09C
:108230009F80012B40F0A3800220FEF721FC01204B
:10824000FEF7FAFB694A138801339BB21380664A32
:10825000127822B95F4A1278022A00F0978007B09C
:10826000BDE8F08F4FF6FF7201210020FDF792F874
:108270000120FFF771FA5E4B00221A60554B012274
:108280001A70B6E7029BB3F5FA7F02DB514B02226C
:108290001A70B5F5FA7FACDA554B1B683C2BA8D9A0
:1082A0000020FFF759FA012200210846FDF772F875
:1082B000484B00221A709CE740F24B439A4598DCE9
:1082C000039B092B95DC40F251339D4291DC484BD6
:1082D0001B683C2B8DD90020FFF73EFA0020FEF7EB
:1082E000CFFB012200210846FDF754F8394B032249
:1082F0001A707EE740F24D239D420BDC354B002285
:108300001A70B5F52F7FFFF674AF0236B1457FF7CF
:1083100070AF03E040F265339D42F2DD4FF6FF722D
:1083200001210020FDF736F80120FFF715FA304B48
:1083300000221A60274B01221A705AE72C4A136850
:1083400001331360B5F5437FFFF66BAF0334A145EE
:108350007FF767AF3C2B7FF664AF234B03221A7085
:108360005FE70320FEF78CFB0220FEF765FB69E761
:108370000320FEF785FB0320FEF75EFB62E700208B
:10838000FEF77EFB0020FEF757FB5BE73C2B7FF6FA
:1083900066AF164B00221A80A8F17E081FFA88F8F3
:1083A000B8F1170F0FD8BBF52F7F0CDA0D4B1B78E8
:1083B000022B3FF654AF0520FEF762FB094A137803
:1083C000013313704BE7074B00221A7047E700BFD9
:1083D00067666666EC110020E0110020C5B3A2912B
:1083E000DC110020E4110020EB110020E611002038
:1083F000D81100200023024A1360024A13807047FC
:10840000E0110020DC1100202DE9D0430020FCF712
:10841000BFFE0446FCF796F932A3D3E90023FCF72C
:10842000FBF900222C4BFCF741F821A3D3E90023F0
:10843000FCF7F2F902460B461FA1D1E90001FCF757
:1084400033F81FA3D3E90023FCF710FB80468946CD
:108450000022224BFCF7E0F906460F4642464B4607
:1084600019A1D1E90001FCF71FF802460B4630467E
:108470003946FCF7FBFA0022184BFCF715F814A359
:10848000D3E90023FCF7C8F9FCF7D8FB01B2144B81
:10849000198014B1B4F5805F05D100227120FEF778
:1084A00029FBBDE8D08301227120FEF723FBF8E70A
:1084B000000000000088C3407E67A3DE48DD9941CC
:1084C0000000000000F3E6400000000000E2A940C8
:1084D000E17A14AE47E1044000004E4000408F4076
:1084E000EE1100200000000000E2E93F10B50C464C
:1084F000002308E01E4901EB8C029480012201F860
:108500002C2010BD0133312B17DC03EB430C184A30
:1085100002EB8C0252888242F4D1002CEAD1144939
:1085200003EB43024FEA820E01EB82024FF0000C94
:10853000A2F804C001F80EC0E4E7002300E0013314
:10854000312BDEDC03EB4302094911F82220002A1B
:10855000F5D1002CF3D003EB430201EB82025080F3
:10856000948003EB4303012201F82320C9E700BFF5
:10857000F811002008B5074B1878012808D001220F
:108580001A700A220449054B186805F0D7F8002034
:1085900008BD00BF541400205814002050140020BF
:1085A00010B582B004460023ADF806300DF1060187
:1085B000FEF784FABDF80620013A18BF0122094BE4
:1085C0000221197021215970210A9970DC70011261
:1085D0001971587100219971DA71FFF7CBFF02B060
:1085E00010BD00BF5814002008B5084B06221A70B1
:1085F00010225A7001684268C3F80210C3F80620BE
:1086000003229A70FFF7B6FF08BD00BF5814002080
:1086100038B52B4A1178537843EA01231BB291787D
:10862000D07840EA012000B21479517941EA04215E
:1086300040F22272934231D00DB211DCB3F5C06F1B
:1086400036D040F2137293421FD0B3F5907F15D10C
:10865000C243D20F2946C0F30E00FEF74BFA0DE0DD
:1086600040F2247293421DD040F27772934205D1BA
:10867000144B01221A70144B00221A800A2210494E
:10868000124B186805F0CAFD38BD84B2A9B2204665
:10869000FFF72CFF2046FFF783FFEFE7C0B2FFF79D
:1086A0008BF8EBE7FFF798F82846FFF7C9F8E5E7FE
:1086B0000748FDF7CFFF0748FDF77AFFDEE700BF69
:1086C00064140020F4110020F21100205014002046
:1086D000E98500086614002008B5084B18600023DF
:1086E000074A1370074A1370074A1370074A13703A
:1086F0000A22074905F092FD08BD00BF5014002072
:10870000561400205514002054140020F4110020A9
:10871000641400202E4A13880A339BB2138040F65B
:10872000B832934202D92B4B00221A70294B1B7886
:10873000002B4BD070B5284A13880A339BB21380A4
:10874000B3F57A7F01D8002316E0134600221A8081
:10875000FCF77FFD012201B21046FEF7CBF90120A4
:10876000FFF71EFFEFE703EB43011C4A02EB810218
:10877000D1880A31D1800133312BF4DD002400E0AF
:108780000134312C21DC04EB4403144A12F8233069
:10879000012BF5D104EB4402104B03EB82039B88C1
:1087A000002BEDD011460D4A02EB8102D288934294
:1087B000E6D80A4D660005EB81035888FFF7F0FE06
:1087C000264405EB86050023EB8070BD704700BF93
:1087D000F2110020F4110020F0110020F811002007
:1087E000044B1B68834200D07047034B00221A7071
:1087F000FAE700BF501400205414002008B5064BBF
:108800001B68834200D008BD0123044A1370044A48
:108810001370FFF7FDFEF6E75014002055140020FA
:108820005614002010B50024054B1C702046FEF79E
:10883000B3FF012221462046FCF7ACFD10BD00BF6E
:108840007914002010B50B4B41221A70632800D810
:108850001870084B1878FEF7BFFF0124064B1C70F8
:108860004FF6FF7221460020FCF794FD2046FEF7EC
:1088700093FF10BD771400207914002010B5002458
:10888000054B1C702046FEF777FF0122214620464B
:10889000FCF780FD10BD00BF7814002010B50B4B15
:1088A00041221A70632800D81870084B1878FEF718
:1088B000C7FF0124064B1C704FF6FF7221460020B3
:1088C000FCF768FD2046FEF757FF10BD7614002028
:1088D0007814002010B5D7230F4A13800F4A138055
:1088E0000F4A13800F4BC3221A800F4B14221A8099
:1088F0000E4B05221A800E4B13221A800D4B0622B6
:108900001A803C200C4B18700C4C2070FEF764FF52
:108910002078FEF795FF10BD8C1400208A140020EB
:108920008814002086140020841400208214002063
:10893000801400207E14002077140020761400207C
:108940002DE9F04F8BB008A8FDF732FC9DF8209080
:108950000023ADF81E300DF11E017C20FEF7AEF8AD
:1089600007460DF11E016F20FEF7A8F801900DF1EA
:108970001E017E20FEF7A2F880460DF11E01722036
:10898000FEF79CF80290BDF81E301BB917B1B8F184
:10899000000F06D1FFF772FFFFF744FF0BB0BDE8F1
:1089A000F08F0DF11E016920FEF788F805460DF1E4
:1089B0001E016A20FEF782F806460DF11E016B20AB
:1089C000FEF77CF804460DF11E016C20FEF776F8E8
:1089D00082460DF11E016D20FEF770F883460DF101
:1089E0001E016E20FEF76AF804900DF11E01712041
:1089F000FEF764F805900DF11E017F20FEF75EF88A
:108A00000390AA4800230380354405EBD5756B100D
:108A1000A3F5967303EB431203EB8203A44A82FB94
:108A20000351DB17C3EBA1030380264406EBD67684
:108A30007610A6F5967606EB461106EB810682FBCC
:108A40000651F617C6EBA10616FA83F39DB2058010
:108A5000544404EBD4746110A1F59671652303FBB3
:108A600001F182FB0134CB17C3EBA4032B4419B2F1
:108A70000180904C21800AEB0B0000EBD07040107D
:108A8000A0F5C8706C2505FB00F082FB0065C017DF
:108A9000C0EBA50010FA83F39BB2238004985844DE
:108AA00000EBD0704010A0F5C8702E2505FB00F03B
:108AB00082FB0052C017C0EBA200034423800122B6
:108AC0005620FEF717F80122B4F900105520FEF7E2
:108AD00011F8794B1D88794B1C88794B1B88994577
:108AE00005D3784B1B88994501D2774B1D88774B6E
:108AF0001B88994505D3764B1B88994501D2754B48
:108B00001C88754B1B78002B00F0AB80734A1388D0
:108B100001331380654BB3F90030002B40F39B8089
:108B2000A84580F29B806E4B1B78002B00F0E680FE
:108B30006C4A1388013313805C4BB3F90030002B6F
:108B400040F3AA802646A74280F2A980059BB3F590
:108B5000966F03DB143EB74280F2A480624B4FF461
:108B6000A5721A80039B002BC0F2EC80A5EB0805D0
:108B7000C5EB05155C4B1A881544ADB21D80B5F5E3
:108B8000167F02D94FF416721A80584A4FF4BE73FA
:108B90001380E41B04EB8404630003F5BE739BB2F3
:108BA0001380B3F5F07F03D913464FF4FA721A809D
:108BB0004A4B1B88282B1FD94D4AA2FB03121209CE
:108BC000C2EB0212A3EB42039BB2ABB9464B1B882C
:108BD0000A3B029A9A4204DA464B1B78632B40F216
:108BE000B880414B1B880A33029A9A4204DD414BFC
:108BF0001B783C2B00F2B4803A4B1B88282B7FF665
:108C0000CDAE3B4AA2FB03121209C2EB0212A3EB48
:108C100042039BB2002B7FF4C1AE344B1B880A3B4E
:108C2000019A9A4204DA344B1B78632B40F29F80FE
:108C30002E4B1B880A33019A9A427FF7AFAE2E4B18
:108C40001B783C2B7FF6AAAE013BD8B22A4B18709A
:108C5000FEF7F6FDA2E6FFF7E5FD61E7FFF7E2FDAF
:108C600061E71E4B00221A80104BB3F90030B3F5B8
:108C7000967FFFF658AF6B1E43457FF754AF0C4B02
:108C800083FB0A234FEAEA70C0EBA300C0F1870020
:108C9000C0B2FFF7D7FD46E7FFF7F0FD52E7FFF759
:108CA000EDFD53E7FFF7EAFD58E700BF7C14002015
:108CB000676666667A140020861400208A140020F5
:108CC0007E140020801400208814002082140020CC
:108CD000841400208C1400207914002074140020C7
:108CE0007814002072140020701400206E140020EC
:108CF0008988888877140020761400201F4B002272
:108D00001A801F4BB3F90030B3F5487FFFF626AF4A
:108D1000631EBB427FF722AF059BB3F5966F04DB62
:108D2000A4F114029742BFF619AF164B83FB0A2336
:108D30004FEAEA70C0EBA300C0F18200C0B2FFF7B7
:108D4000ADFD0BE703EBD3735B10D31A0E4A138010
:108D50000CE70133D8B20D4B1870FEF73DFD40E72C
:108D6000013BD8B2094B1870FEF736FD44E70133DA
:108D7000D8B2074B1870FEF763FD59E77214002054
:108D80007C1400206766666670140020771400204B
:108D9000761400200023054A1380054A1380054AF3
:108DA0001360054A1360054A13707047A21400202F
:108DB000A0140020A8140020A41400208E14002069
:108DC00008B52E4B1B682E4A1268934217D12D4AC4
:108DD0001368013313602C4AB2F90020002A1EDD0B
:108DE00044F2506191FBF2F2B3EB420F17D900212C
:108DF000254B198001225A20FDF77CFE0FE0204A06
:108E00001360204B1A6844F25061B1FBF2F11E4A24
:108E1000118000221A6001225A20FDF76BFE1B4BC5
:108E20001B681B4A1268934217D11A4A1368013310
:108E30001360194AB2F90020002A1EDD44F2506185
:108E400091FBF2F2B3EB420F17D90021124B1980BC
:108E500001225B20FDF74EFE0FE00D4A13600D4B23
:108E60001A6844F25061B1FBF2F10B4A1180002202
:108E70001A6001225B20FDF73DFE08BDA81400200A
:108E80009C14002094140020A2140020A41400209C
:108E90009814002090140020A014002010B5002188
:108EA000074B1960074C216001225C20FDF722FE70
:108EB0000122B4F900105D20FDF71CFE10BD00BFBB
:108EC000A8140020A414002010B50446022802D0E3
:108ED000042C0AD010BD0A4B196803311960012215
:108EE00009B25C20FDF706FEF2E7064B1968033174
:108EF0001960012209B25D20FDF7FCFDEAE700BF21
:108F0000A8140020A414002008B5017A007CFCF706
:108F1000C7FA08BD10B504468188006802F092FDCA
:108F2000A072237A984212D0A37B0133DBB2A373E1
:108F3000E27B934212D920720023A373A381637A48
:108F400098420BD060722046FFF7DEFF06E0A3894F
:108F50004FF6FF72934201D00133A38110BD000090
:108F600084B038B504AC84E80F009DF824E08DF897
:108F700020E00B4D0EEB8E034FEA830CAC440FCC7C
:108F8000ACE80F002368CCF800300EEB8E0E4FEAF1
:108F90008E002844FFF7BEFFBDE8384004B070479C
:108FA000AC14002030B589B000238DF814308DF852
:108FB00016308DF81530ADF818308DF81A301422AF
:108FC0008DF81B204FF090420392012504950193E8
:108FD000079B009303AC94E80F00FFF7C1FF0F4B12
:108FE0000393082304930195079B009394E80F00D3
:108FF000FFF7B6FF8DF814508DF816508DF8155008
:109000004FF40073049302230193079B009394E8A9
:109010000F00FFF7A5FF09B030BD00BF00080048F2
:10902000022801D90020704700EB8000024B03EBBF
:109030008003187A704700BFAC14002010B50024DC
:1090400008E004EB8402930004481844FFF762FF31
:109050000134E4B2022CF4D910BD00BFAC140020DE
:109060002DE9F0438BB000240594069407940894EE
:1090700009945B4BDA6C42F00402DA64DA6C02F0B9
:1090800004020092009ADA6C42F08002DA64DA6C30
:1090900002F080020192019ADA6C42F00102DA6475
:1090A000DA6C02F001020292029ADA6C42F00202D9
:1090B000DA64DA6C02F002020392039ADA6C42F08C
:1090C0000802DA64DB6C03F008030493049B454E4A
:1090D000224647F6C041304602F0BBFC22460E2134
:1090E0004FF0904002F0B5FC3F4F22464FF62C71F6
:1090F000384602F0AEFCDFF8F490224604214846E0
:1091000002F0A7FCDFF8E88022460821404602F082
:10911000A0FC47F6C04305930125069507940894E3
:1091200005A9304602F0AAFB48F2083305930694DD
:10913000079405A9304602F0A1FB062305934FF4DE
:1091400088130693079405A9304602F097FB05950E
:109150000694079405A94FF0904002F08FFB0E2370
:10916000059306950794089405A94FF0904002F0E6
:1091700085FB05950694079405A9384602F07EFB09
:109180004FF62C73059306950794089405A9384665
:1091900002F074FB0423059306950794089405A92F
:1091A000484602F06BFB082605960695079408943E
:1091B00005A9404602F062FB22460A21072002F080
:1091C000AFF9072002F0BCF922460A21304602F02E
:1091D000A7F9304602F0B4F90BB0BDE8F08300BF48
:1091E000001002400008004800040048000C00483D
:1091F000001C004800B583B0124B9A6C42F001028B
:109200009A649B6C03F001030193019B00220221ED
:109210000B2002F085F90B2002F092F900220221C6
:109220000E2002F07DF90E2002F08AF900220221C0
:109230000F2002F075F90F2002F082F903B05DF8FB
:1092400004FB00BF0010024072B6FEE708B50D48EF
:109250000D4B03600523436000238360C3604FF41C
:10926000602202614FF4401242610376012242768D
:109270008376C2760377437701F048FD00B908BDD5
:10928000FFF7E2FFC81600200064004010B596B05A
:1092900000241394149415940C940D940E940F942C
:1092A0001094119412942C22214601A805F0ABF9D8
:1092B0002C482D4B03603123436084604FF47A7354
:1092C000C36004614461846103F078FF00283DD1EC
:1092D000002313931493159313A9224804F07AF9E9
:1092E000002835D160230C9300220D920E920F922C
:1092F0001092119212920CA91A4803F0C9FF48BBB0
:1093000004220CA9174803F0C3FF28BB08220CA9AC
:10931000144803F0BDFF08BB00230193029303939D
:10932000049305934FF400520692079308934FF06D
:10933000007209920A930B9301A90A4804F082F97A
:1093400070B9084800F008FC16B010BDFFF77CFFAC
:10935000FFF77AFFFFF778FFFFF776FFFFF774FF5D
:10936000FFF772FF48160020002C014008B50B489B
:109370000B4B03604FF46143436000238360C36081
:1093800003610C2242618361C3610362436204F0A2
:10939000BCFE00B908BDFFF757FF00BF78150020DD
:1093A0000038014000B585B0002301930293039378
:1093B0000D480E4A02600422426083604FF47A72C4
:1093C000C260836103F0CAFE50B900230193039386
:1093D00001A9054804F0FEF820B905B05DF804FBCA
:1093E000FFF732FFFFF730FFFC15002000100040B0
:1093F00000B587B000230093019302930393049375
:1094000005934348434A026043608360C36001227E
:10941000026104214161037642760821C16180F82E
:1094200020308362C36280F83020436380F8383094
:1094300000F0C2FD002859D1374B00930623019359
:10944000002302937F22039204220492059369462B
:109450002F4801F011F800284AD1304B00930C231B
:10946000019369462A4801F007F8002842D12C4BA5
:109470000093122301936946254800F0FDFF002860
:109480003AD1284B0093182301936946204800F0F5
:10949000F3FF002832D1244B00934FF480730193E3
:1094A00069461B4800F0E8FF50BB204B00934FF487
:1094B000837301936946164800F0DEFF10BB1C4B16
:1094C00000934FF4867301936946114800F0D4FF6E
:1094D000D0B9184B00934FF48973019369460C4837
:1094E00000F0CAFF90B907B05DF804FBFFF7ACFECF
:1094F000FFF7AAFEFFF7A8FEFFF7A6FEFFF7A4FE00
:10950000FFF7A2FEFFF7A0FEFFF79EFEFFF79CFE0F
:109510003817002000000450020030040002B0257B
:109520000004002A0008302E00106032002090361F
:109530000040C03A0000214308B50A480A4B0360C6
:10954000002343607C22826040F2CF72C2600361DC
:1095500043618361C36103F08BFA00B908BDFFF773
:1095600073FE00BF941600200028004008B508488C
:10957000084B03600623436040F6FF73C36040F26C
:109580007713836002F082FA00B908BDFFF75CFE32
:10959000B81600200030004000B597B044220021EA
:1095A00005A805F030F8002300930193029303937C
:1095B00004934FF4007002F0ABFA30BB092305931B
:1095C0004FF48033069301230A9302230F9303225F
:1095D0001092119319221292072213921493159349
:1095E00005A802F079FB90B90F23009303210191A4
:1095F000002302934FF4806303930493684602F0C0
:10960000A1FE30B917B05DF804FBFFF71DFEFFF7B0
:109610001BFEFFF719FE000008B5114B114A9A60B6
:10962000BFF34F8FBFF36F8F62B600F075FCFFF78B
:10963000B3FFFFF715FDFFF7DDFDFFF707FEFFF7AF
:1096400025FEFFF793FEFFF7ADFEFFF7D1FEFFF714
:1096500073FFFFF78BFFFDF787FBFDF731FDFEE79B
:1096600000ED00E00042000808B5FFF7E7FC08BD88
:1096700008B5FCF70DF908BD08B5FCF7A1F8FBF734
:1096800001FEFDF7B9F9FFF745F8FFF799FBFDF784
:1096900023FEFBF79DFF08BD08B5FCF737FEFEF77C
:1096A000B3FEFBF763FD08BD08B5FEF795FAFEF7BC
:1096B00015FDFDF7E7FAFDF721FDFFF741F9FDF78D
:1096C0004FFF08BD0D4B01229A800D4B05229A8059
:1096D0000C4B0A229A800C4B32229A800B4B64224C
:1096E0009A800B4BFA229A800A4B4FF4FA729A80B6
:1096F000094B4FF47A729A80704700BFD41700204C
:10970000CC170020C4170020BC170020B41700207D
:10971000AC170020A41700209C170020344A53885F
:1097200001339BB253809288934204D3304B012281
:109730001A7000225A802F4A538801339BB25380FB
:109740009288934204D32B4B01221A7000225A8034
:10975000294A538801339BB253809288934204D3A1
:10976000254B01221A7000225A80244A5388013363
:109770009BB253809288934204D3204B01221A70EB
:1097800000225A801E4A538801339BB2538092882C
:10979000934204D31A4B01221A7000225A80194AAC
:1097A000538801339BB253809288934204D3154B64
:1097B00001221A7000225A80134A538801339BB247
:1097C00053809288934204D30F4B01221A700022D7
:1097D0005A800E4A538801339BB253809288934239
:1097E00004D30A4B01221A7000225A80704700BF2E
:1097F000D4170020CC170020C4170020BC1700206D
:10980000B4170020AC170020A41700209C170020DC
:1098100008B5204B1B78F3B91F4B1B780BBB1F4BB4
:109820001B7823BB1E4B1B7813B11D4B00221A70F3
:109830001C4B1B780BBB1C4B1B7813B11A4B002223
:109840001A701A4B1B7813B1184B00221A70184B60
:109850001B78C3B908BDFFF707FF0E4B00221A7033
:10986000DAE7FFF705FF0C4B00221A70D7E7FFF786
:1098700003FF0A4B00221A70D4E7FFF70DFF094BD4
:1098800000221A70D7E7FFF70FFF094B00221A706A
:10989000E0E700BFD4170020CC170020C417002039
:1098A000BC170020B4170020AC170020A41700201C
:1098B0009C17002082B00A4B1A6E42F001021A6611
:1098C0001A6E02F001020092009A9A6D42F08052E4
:1098D0009A659B6D03F080530193019B02B0704722
:1098E0000010024070B5A0B0044600211B911C91ED
:1098F0001D911E911F915C2204A804F084FE226831
:109900003A4B9A4201D020B070BD4FF4804304938B
:109910004FF04053189304A802F0BAFE00285ED11D
:10992000334BDA6C42F40052DA64DA6C02F400521F
:109930000092009ADA6C42F00402DA64DA6C02F007
:1099400004020192019ADA6C42F00102DA64DA6CE4
:1099500002F001020292029ADA6C42F00202DA6428
:10996000DB6C03F002030393039B31231B930B2651
:109970001C9600251D951BA91E4801F07FFFF023B2
:109980001B931C961D951BA94FF0904001F076FF8C
:1099900002231B931C961D951BA9174801F06EFF0F
:1099A0001648174B036045608560C56080230361DE
:1099B0004FF4807343614FF480638361C561056236
:1099C00001F0F0FD70B90D4BE3649C6200220221AE
:1099D000122001F0A5FD122001F0B2FD93E7FFF780
:1099E00033FC9DE7FFF730FCEDE700BF00000450BB
:1099F000001002400008004800040048F016002053
:109A00000800024010B588B0002303930493059327
:109A1000069307930268204B9A4201D008B010BD0C
:109A200003F5D6339A6D42F000729A659A6D02F092
:109A300000720192019ADA6C42F00102DA64DB6C86
:109A400003F001030293029B4FF4C05303930224DB
:109A50000494032306930923079303A94FF090402E
:109A600001F00CFF00222146132001F059FD1320C4
:109A700001F066FD00220121142001F051FD1420A7
:109A800001F05EFD00220121152001F049FD1520A5
:109A900001F056FDC2E700BF0064004010B598B069
:109AA00004465C22002101A804F0ADFD22680D4BA4
:109AB0009A4201D018B010BD4FF4003301934FF417
:109AC0004073179301A802F0E3FD38B9064AD2F8B3
:109AD000903043F40043C2F89030EBE7FFF7B4FB5B
