:020000040800F2
:1040000062C652960301000064000000D7728869FE
:104010003030312E30300000000000000000000081
:10402000544543484D00000000000000000000001F
:104030000000000000400008E30C010800420008F6
:1040400000420008E30C0108FFFFFFFF0000000032
:104050000000000000000000000000000000000060
:104060000000000000000000000000000000000050
:104070000000000000000000000000000000000040
:104080000000000000000000000000000000000030
:104090000000000000000000000000000000000020
:1040A0000000000000000000000000000000000010
:1040B0000000000000000000000000000000000000
:1040C00000000000000000000000000000000000F0
:1040D00000000000000000000000000000000000E0
:1040E00000000000000000000000000000000000D0
:1040F00000000000000000000000000000000000C0
:1041000000000000000000000000000000000000AF
:10411000000000000000000000000000000000009F
:10412000000000000000000000000000000000008F
:10413000000000000000000000000000000000007F
:10414000000000000000000000000000000000006F
:10415000000000000000000000000000000000005F
:10416000000000000000000000000000000000004F
:10417000000000000000000000000000000000003F
:10418000000000000000000000000000000000002F
:10419000000000000000000000000000000000001F
:1041A000000000000000000000000000000000000F
:1041B00000000000000000000000000000000000FF
:1041C00000000000000000000000000000000000EF
:1041D00000000000000000000000000000000000DF
:1041E00000000000000000000000000000000000CF
:1041F00000000000000000000000000000000000BF
:10420000000001204D9D0008899B00088B9B000841
:104210008D9B00088F9B0008919B00080000000008
:10422000000000000000000000000000939B000858
:10423000959B000800000000979B0008999B0008D0
:104240009D9D00089D9D00089D9D00089D9D000866
:104250009D9D00089D9D00089D9D0008A59B000850
:10426000AF9B00089D9D00089D9D0008B99B00081C
:104270009D9D00089D9D0008C99B0008D99B0008D2
:104280009D9D00089D9D0008E99B0008F99B000882
:10429000099C0008199C00089D9D00089D9D000830
:1042A0009D9D00089D9D00089D9D00089D9D000806
:1042B0009D9D000800000000000000009D9D00087A
:1042C0009D9D00089D9D00089D9D00089D9D0008E6
:1042D0009D9D0008299C00089D9D00089D9D00084B
:1042E0009D9D00089D9D000800000000000000004A
:1042F00000000000000000000000000000000000BE
:10430000000000009D9D0008000000009D9D000829
:104310000000000000000000399C00089D9D00087E
:104320009D9D00089D9D00089D9D00089D9D000885
:104330009D9D00080000000000000000000000003B
:104340009D9D00089D9D00089D9D000800000000A7
:104350009D9D00089D9D00089D9D00089D9D000855
:104360009D9D00089D9D00089D9D00080000000087
:104370009D9D00089D9D00080000000000000000B9
:104380009D9D00089D9D00089D9D00080000000067
:1043900010B5054C237833B9044B13B10448AFF37F
:1043A00000800123237010BD1802002000000000CF
:1043B000A407010808B5034B1BB103490348AFF339
:1043C000008008BD000000001C020020A4070108B6
:1043D00010F8012B11F8013B012A28BF9A42F7D0AF
:1043E000D01A7047034613F8012B002AFBD1181A84
:1043F00001387047000000000000000000000000CD
:1044000001F0FF01102A2BDB10F0070F08D010F885
:10441000013B013A8B422DD010F0070F42B3F6D189
:10442000F0B441EA012141EA014122F007047FF0A2
:1044300000070023F0E80256083C85EA010586EAF9
:10444000010685FA47F5A3FA87F586FA47F6A5FA35
:1044500087F68EB9EED1F0BC01F0FF0102F0070241
:1044600032B110F8013B013A83EA010313B1F8D1EC
:104470000020704701387047002D06BF35460338CD
:10448000073815F0010F07D1013015F4807F02BF06
:10449000013015F4C03F0130F0BC0138704700BF57
:1044A00081F0004102E000BF83F0004330B54FEAE5
:1044B00041044FEA430594EA050F08BF90EA020F52
:1044C0001FBF54EA000C55EA020C7FEA645C7FEAE5
:1044D000655C00F0E2804FEA5454D4EB5555B8BF08
:1044E0006D420CDD2C4480EA020281EA030382EA79
:1044F000000083EA010180EA020281EA0303362D0B
:1045000088BF30BD11F0004F4FEA01314FF4801CDD
:104510004CEA113102D0404261EB410113F0004FEF
:104520004FEA03334CEA133302D0524263EB4303A6
:1045300094EA050F00F0A780A4F10104D5F1200E44
:104540000DDB02FA0EFC22FA05F2801841F100019F
:1045500003FA0EF2801843FA05F359410EE0A5F173
:1045600020050EF1200E012A03FA0EFC28BF4CF0A4
:10457000020C43FA05F3C01851EBE37101F000455A
:1045800007D54FF0000EDCF1000C7EEB00006EEB67
:104590000101B1F5801F1BD3B1F5001F0CD34908F1
:1045A0005FEA30004FEA3C0C04F101044FEA445248
:1045B00012F5800F80F09A80BCF1004F08BF5FEACF
:1045C000500C50F1000041EB045141EA050130BDAF
:1045D0005FEA4C0C404141EB0101013C28BFB1F5C1
:1045E000801FE9D291F0000F04BF01460020B1FA0C
:1045F00081F308BF2033A3F10B03B3F120020CDADF
:104600000C3208DD02F1140CC2F10C0201FA0CF0BC
:1046100021FA02F10CE002F11402D8BFC2F1200C21
:1046200001FA02F120FA0CFCDCBF41EA0C019040D7
:10463000E41AA2BF01EB0451294330BD6FEA040420
:104640001F3C1CDA0C340EDC04F11404C4F120020B
:1046500020FA04F001FA02F340EA030021FA04F31D
:1046600045EA030130BDC4F10C04C4F1200220FA74
:1046700002F001FA04F340EA0300294630BD21FAB2
:1046800004F0294630BD94F0000F83F4801306BF78
:1046900081F480110134013D4EE77FEA645C18BF6C
:1046A0007FEA655C29D094EA050F08BF90EA020F03
:1046B00005D054EA000C04BF1946104630BD91EAFB
:1046C000030F1EBF0021002030BD5FEA545C05D1FE
:1046D0004000494128BF41F0004130BD14F580043D
:1046E0003CBF01F5801130BD01F0004545F0FE41B1
:1046F00041F470014FF0000030BD7FEA645C1ABFE6
:10470000194610467FEA655C1CBF0B46024650EA1C
:10471000013406BF52EA033591EA030F41F4002148
:1047200030BD00BF90F0000F04BF0021704730B5CE
:104730004FF4806404F132044FF000054FF00001A3
:1047400050E700BF90F0000F04BF0021704730B564
:104750004FF4806404F1320410F0004548BF404239
:104760004FF000013EE700BF42004FEAE2014FEA8E
:1047700031014FEA02701FBF12F07F4393F07F4F69
:1047800081F06051704732F07F4208BF704793F06C
:104790007F4F04BF41F40021704730B54FF460747F
:1047A00001F0004521F000411CE700BF50EA010282
:1047B00008BF704730B54FF000050AE050EA01022B
:1047C00008BF704730B511F0004502D5404261EB9B
:1047D00041014FF4806404F132045FEA915C3FF4DC
:1047E000D8AE4FF003025FEADC0C18BF03325FEA79
:1047F000DC0C18BF033202EBDC02C2F1200300FA2A
:1048000003FC20FA02F001FA03FE40EA0E0021FA4E
:1048100002F11444BDE600BF70B54FF0FF0C4CF43C
:10482000E06C1CEA11541DBF1CEA135594EA0C0FEE
:1048300095EA0C0F00F0DEF82C4481EA030621EA29
:104840004C5123EA4C5350EA013518BF52EA033564
:1048500041F4801143F4801338D0A0FB02CE4FF016
:104860000005E1FB02E506F00042E0FB03E54FF046
:104870000006E1FB03569CF0000F18BF4EF0010E3E
:10488000A4F1FF04B6F5007F64F5407404D25FEA3A
:104890004E0E6D4146EB060642EAC62141EA5551ED
:1048A0004FEAC52040EA5E504FEACE2EB4F1FD0C2F
:1048B00088BFBCF5E06F1ED8BEF1004F08BF5FEAAD
:1048C000500E50F1000041EB045170BD06F000465F
:1048D00046EA010140EA020081EA0301B4EB5C040C
:1048E000C2BFD4EB0C0541EA045170BD41F4801104
:1048F0004FF0000E013C00F3AB8014F1360FDEBF29
:10490000002001F0004170BDC4F10004203C35DA04
:104910000C341BDC04F11404C4F1200500FA05F387
:1049200020FA04F001FA05F240EA020001F0004228
:1049300021F0004110EBD37021FA04F642EB06019E
:104940005EEA430E08BF20EAD37070BDC4F10C04C8
:10495000C4F1200500FA04F320FA05F001FA04F28C
:1049600040EA020001F0004110EBD37041F1000178
:104970005EEA430E08BF20EAD37070BDC4F1200583
:1049800000FA05F24EEA020E20FA04F301FA05F2EB
:1049900043EA020321FA04F001F0004121FA04F293
:1049A00020EA020000EBD3705EEA430E08BF20EA63
:1049B000D37070BD94F0000F0FD101F0004640009D
:1049C00041EB010111F4801F08BF013CF7D041EA1F
:1049D000060195F0000F18BF704703F00046520023
:1049E00043EB030313F4801F08BF013DF7D043EAF4
:1049F0000603704794EA0C0F0CEA135518BF95EAAA
:104A00000C0F0CD050EA410618BF52EA4306D1D130
:104A100081EA030101F000414FF0000070BD50EA4F
:104A2000410606BF1046194652EA430619D094EAD9
:104A30000C0F02D150EA013613D195EA0C0F05D1C3
:104A400052EA03361CBF104619460AD181EA030117
:104A500001F0004141F0FE4141F470014FF00000CF
:104A600070BD41F0FE4141F4780170BD70B54FF06A
:104A7000FF0C4CF4E06C1CEA11541DBF1CEA1355EA
:104A800094EA0C0F95EA0C0F00F0A7F8A4EB0504CC
:104A900081EA030E52EA03354FEA013100F08880C3
:104AA0004FEA03334FF0805545EA131343EA12638C
:104AB0004FEA022245EA111545EA10654FEA002641
:104AC0000EF000419D4208BF964244F1FD0404F5FA
:104AD000407402D25B084FEA3202B61A65EB030556
:104AE0005B084FEA32024FF480104FF4002CB6EB13
:104AF000020E75EB030E22BFB61A754640EA0C0093
:104B00005B084FEA3202B6EB020E75EB030E22BFD2
:104B1000B61A754640EA5C005B084FEA3202B6EB13
:104B2000020E75EB030E22BFB61A754640EA9C00D2
:104B30005B084FEA3202B6EB020E75EB030E22BFA2
:104B4000B61A754640EADC0055EA060E18D04FEA60
:104B5000051545EA16754FEA06164FEAC30343EA00
:104B600052734FEAC2025FEA1C1CC0D111F4801FCD
:104B70000BD141EA00014FF000004FF0004CB6E7C6
:104B800011F4801F04BF01430020B4F1FD0C88BF65
:104B9000BCF5E06F3FF6AFAEB5EB030C04BFB6EB70
:104BA000020C5FEA500C50F1000041EB045170BD63
:104BB0000EF0004E4EEA113114EB5C04C2BFD4EB90
:104BC0000C0541EA045170BD41F480114FF0000E14
:104BD000013C90E645EA060E8DE60CEA135594EA90
:104BE0000C0F08BF95EA0C0F3FF43BAF94EA0C0F93
:104BF0000AD150EA01347FF434AF95EA0C0F7FF408
:104C000025AF104619462CE795EA0C0F06D152EA5B
:104C100003353FF4FDAE1046194622E750EA41063F
:104C200018BF52EA43067FF4C5AE50EA41047FF450
:104C30000DAF52EA43057FF4EBAE12E74FEA4102B3
:104C400012F5001215D211D56FF47873B3EB6252DE
:104C500012D94FEAC12343F0004343EA505311F005
:104C6000004F23FA02F018BF404270474FF0000097
:104C7000704750EA013005D111F0004008BF6FF0D5
:104C8000004070474FF00000704700BF4A0011D24B
:104C900012F5001211D20DD56FF47873B3EB625296
:104CA0000ED44FEAC12343F0004343EA505323FAA2
:104CB00002F070474FF00000704750EA013002D117
:104CC0004FF0FF3070474FF0000070474FEA41024D
:104CD000B2F1E04324BFB3F5001CDCF1FE5C0DD95A
:104CE00001F0004C4FEAC0024CEA5070B2F1004FA4
:104CF00040EB830008BF20F00100704711F0804FA7
:104D000021D113F13872BCBF01F00040704741F46B
:104D100080114FEA5252C2F11802C2F1200C10FA6F
:104D20000CF320FA02F018BF40F001004FEAC12353
:104D30004FEAD32303FA0CFC40EA0C0023FA02F3F7
:104D40004FEA4303CCE77FEA625307D150EA0133CD
:104D50001EBF4FF0FE4040F44000704701F000409D
:104D600040F0FE4040F40000704700BF7BB972B9CC
:104D70000029BEBF00204FF0004106E008BF002818
:104D80001CBF6FF000414FF0FF3000F0D3B9ADF120
:104D9000080C6DE904CE002909DB002B1ADB00F0BA
:104DA0004DF8DDF804E0DDE9022304B0704740422D
:104DB00061EB4101002B1BDB00F040F8DDF804E063
:104DC000DDE9022304B0404261EB4101524263EB52
:104DD00043037047524263EB430300F02FF8DDF8C2
:104DE00004E0DDE9022304B0404261EB4101704779
:104DF000524263EB430300F021F8DDF804E0DDE903
:104E0000022304B0524263EB4303704753B94AB9DB
:104E1000002908BF00281CBF4FF0FF314FF0FF30C2
:104E200000F088B9ADF1080C6DE904CE00F006F889
:104E3000DDF804E0DDE9022304B070472DE9F04716
:104E4000089D8E4604468846002B4AD18A42174662
:104E500062D9B2FA82F64EB1C6F1200301FA06F821
:104E600020FA03F3B74043EA0808B4404FEA174E6C
:104E70001FFA87FCB8FBFEF1230C0EFB118843EAF6
:104E8000084301FB0CF29A4209D9FB1801F1FF30EB
:104E900080F0EA809A4240F2E78002393B449A1A55
:104EA000A3B2B2FBFEF00EFB102243EA024300FB6A
:104EB0000CFC9C4509D9FB1800F1FF3280F0D6802C
:104EC0009C4540F2D3803B44023840EA0140A3EBCA
:104ED0000C0300211DB1F3400022C5E90032BDE8FA
:104EE000F0878B4205D90DB1C5E9000100210846C4
:104EF000F5E7B3FA83F1002946D1734502D3824224
:104F000000F20581841A6EEB030201209046002D09
:104F1000E5D0C5E90048E2E7002A00F09080B2FA47
:104F200082F6002E40F0A4808A1A030C4FEA174E36
:104F300080B2BCB20121B2FBFEFC0EFB1C2243EA94
:104F4000024304FB0CF29A4207D9FB180CF1FF381C
:104F500002D29A4200F2E080C4469B1AB3FBFEF2F2
:104F60000EFB123340EA034302FB04F49C4207D9D0
:104F7000FB1802F1FF3002D29C4200F2CA800246C6
:104F80001B1B42EA0C40A5E7C1F120068B4022FA28
:104F900006F71F430EFA01F420FA06F32EFA06FE76
:104FA0004FEA1749234300FA01F81FFA87FCBEFBBA
:104FB000F9F01C0C09FB10EE44EA0E4400FB0CFE59
:104FC000A64502FA01F209D93C1900F1FF3A80F036
:104FD0009C80A64540F2998002383C44A4EB0E0424
:104FE0001FFA83FEB4FBF9F309FB13444EEA0444B1
:104FF00003FB0CFCA44508D93C1903F1FF3E80F0EB
:105000008280A4457FD9023B3C4443EA0040A4EBA4
:105010000C04A0FB02EC64457346E14662D35FD00A
:105020005DB1B8EB030264EB090404FA06F622FA58
:1050300001F31E43CC40C5E9006400214FE7B1FBFA
:10504000F2FC010C41EA0E4180B240EA01423B46CB
:1050500038463C46B846BE462026B1FBF7F1A2EBE7
:10506000080241EA0C4166E7014618E710462CE7C2
:10507000C6F120022EFA02F3B740B14020FA02F244
:105080004FEA174E0A43B3FBFEF8BCB20EFB1833CF
:10509000110C41EA034108FB04F9B04089454FEA8D
:1050A000104380B23ED9791808F1FF3C01D28945FE
:1050B0001FD8A1EB0901B1FBFEF909FB04F80EFBB7
:1050C000191192B242EA0142424529D2BA1809F1B5
:1050D000FF31C4D24245C2D2A9F102013A44BEE72F
:1050E000F0459DD2BEEB02036CEB070C0138E146A4
:1050F00096E7A7EB09094944A8F1020CB1FBFEF9B8
:1051000009FB04F8DBE773467FE7504666E708468D
:10511000FDE63B44023A33E7ACF1020C3B441CE7AA
:1051200049469CE7A1EB0901C446B1FBFEF909FB26
:1051300004F8C4E7704700BF10B5084B1860084B6F
:105140001960084C22707F2105F0FBFC207840009C
:1051500009F000F8044B186010BD00BF40020020A9
:105160003C020020380200203402002008B5054B24
:10517000196829B1044B1A78044B186805F0F6FB3E
:1051800008BD00BF34020020380200204002002089
:10519000064B1B78834205D9054B1B6823B133F8B6
:1051A0001000704700207047002070473802002030
:1051B0003402002008B5024B186805F081FC08BDD8
:1051C0004002002030B585B004460025ADF80E50F1
:1051D0000DF10E0101F052FCBDF80E30013B18BF7D
:1051E0000123220A8DF804208DF8054002128DF863
:1051F00006208DF807008DF808508DF809308DF8DD
:105200000A508DF80B50054B1878082201A900F5BB
:10521000887000F047FB05B030BD00BF440200209D
:10522000014B1870704700BF4402002010B50446BF
:1052300000F0A2FA00EBC4008379052B01D0002016
:1052400010BD0120FCE738B50024254601E00134FB
:1052500024B2072C09DCE0B2FFF7E8FF0128F6D101
:105260000123A3401D432DB2F1E7284638BD08B500
:1052700000F00AFB08BD000070B5002308E003EB56
:1052800043029100184A0A44D1880A31D18001337F
:10529000632BF4DD002400E00134632C22DC04EBFA
:1052A00044029300104AD35C012BF5D104EB440374
:1052B0009A000D4B13449B88002BEDD004EB440265
:1052C0009100094A0A44D2889342E5D8064D660007
:1052D0000B462B445888FFF775FF33199A00154485
:1052E0000023EB8070BD00BF4802002008B5034BCF
:1052F0001B78184480B200F0D5FA08BD44020020A3
:1053000010B50C46002308E01E4901EB8C02948086
:10531000012201F82C2010BD0133632B17DC03EBB5
:10532000430C184A02EB8C0252888242F4D1002CC2
:10533000EAD1144903EB43024FEA820E01EB8202E9
:105340004FF0000CA2F804C001F80EC0E4E70023FF
:1053500000E00133632BDEDC03EB4302094911F863
:105360002220002AF5D1002CF3D003EB430201EBFD
:1053700082025080948003EB4303012201F8232032
:10538000C9E700BF4802002000B583B0030A8DF8CA
:1053900000308DF801000B0A8DF802308DF80310F3
:1053A000130A8DF804308DF8052000238DF80530A0
:1053B0008DF80730082269464FF49870FFF796FF82
:1053C00003B05DF804FB00B583B003128DF8003024
:1053D0008DF801000B0A8DF802308DF803100023C0
:1053E0008DF804308DF805308DF8073008226946B5
:1053F0004FF4A070FFF77AFF03B05DF804FB0000E4
:1054000000B583B00A4B1B788DF800308DF8010091
:1054100029B10A68CDF802208B88ADF80630082241
:1054200069464FF4C460FFF761FF03B05DF804FB09
:105430004402002000B583B002466B460068516804
:1054400003C3064B18788DF800000822694600F562
:10545000C260FFF74BFF03B05DF804FB440200207D
:10546000F8B5394B1E78002E69D10022DA70012977
:105470003AD0354B1B78002B63D0F8BD0133DBB23B
:105480007446324A52F82E2092F806C09C4521D923
:1054900002EB030C9CF807C08445EFD12A4D01278D
:1054A0002F70687095F803C0BC4485F803C09773EB
:1054B000264A52F8245000272F8252F82450A8740C
:1054C00052F82450E97452F824201479012CD5D1D3
:1054D000D473D3E70EF1010E5FFA8EFE1C4B1B78DE
:1054E0007345C6D93346CBE7B646F7E70132D2B2A9
:1054F000164C54F82540A67996420CD9A618F67990
:105500008642F3D1E67B0136E673104C54F8254011
:1055100000262682EAE70133DBB20D4A12789A426E
:10552000A7D91D46094A52F82320947B012CF2D1B9
:105530001279012AEFD10129EDD10022D8E7002309
:10554000EBE701F0B3FD98E7FC060020040700201C
:10555000F806002038B504460588142008F0FAFD46
:10556000094B43F82500228853F822305BB12068AC
:105570006168A268186059609A60A2899A81034A9A
:1055800013780133137038BD04070020F80600209B
:10559000F8B5002427E00135EDB23E4B53F8263034
:1055A0009A79AA4210D92B44D87903F0A5FC002897
:1055B000F1D10746EFE7D97B5A79914229D11A8A6E
:1055C0009B899A4201D224E01FB3324D55F8263010
:1055D000987801F08BFD55F82620002393732E4A0E
:1055E00013700134E4B22D4B1B78A34226D9264612
:1055F000284B53F824309F7B012FF2D11A8A0A32AC
:105600001A82244B53F824301D79002DC5D0012D6A
:10561000D1D0204B53F82630198A9A899142E0D391
:1056200000229A731B4B53F826301A821A4BDB78F0
:10563000002BD6D0013B184AD370D2E7164B1B780B
:10564000012B04D0144B1B78022B0ED0F8BD124B4B
:10565000DB78002BF6D1104C0121607801F026FD9B
:10566000022323700023A380ECE70B4A93880A33BC
:105670009BB29380632BE9D9507803F03DFC18B1BD
:10568000054B00221A70E1E70021034B587801F026
:105690000DFDF5E704070020FC060020F8060020B9
:1056A00030B583B0174AD2F89430002400940194A6
:1056B000D2F8941041F40001C2F8941003228DF83E
:1056C00000201B0E8DF802300F4D0521284607F0F3
:1056D000A4FA8DF803000621284607F09EFA0190EF
:1056E00022460521284607F08CFA22460621284644
:1056F00007F087FA0DF102012046FFF781FE03B0A3
:1057000030BD00BF00100240C8150020BFF34F8F0E
:105710000549CA6802F4E062044B1343CB60BFF34F
:105720004F8F00BFFDE700BF00ED00E00400FA0569
:1057300084B008B50DF1080C8CE80F006146044BED
:10574000586901F03BFABDE8084004B0704700BF5B
:105750009407002010B5064CA06805F06CFB0522EC
:10576000A2712178034B03EBC1039A7110BD00BFF6
:105770009407002054070020004870475407002079
:1057800010B58EB006E02BB99DF831202E4B1B785A
:105790009A4217D005A92C4BD86801F0ECF9D8B97A
:1057A000059BA3F5E0620F2AEDD8DAB2072AEAD802
:1057B00011469DF83000254A02EBC102907100218C
:1057C0005180E0E79DF83030812B03D0822BE1D16E
:1057D000FFF79CFFFFF79AFF002100E00131072946
:1057E00017DC1A4A02EBC10253880A339BB253807A
:1057F00092889342F2D9154B03EBC1039B79FF2B9F
:10580000ECD0124B03EBC10300225A80FF229A71A5
:10581000E4E70D4A53880A339BB25380928893423F
:1058200001D20EB010BD084C00236380A37984F828
:10583000303004F128030FCB8DE80F00183494E8C2
:105840000F00FFF775FFECE79407002054070020D6
:1058500000B58BB002A90B4B586901F05BF910B190
:105860000BB05DF804FB01AB08AA02A905488068EB
:1058700005F00FFB0028F3D1024B586901F063F9E2
:10588000EEE700BF9407002008B50146044B1869F5
:1058900001F071F908B1002008BD0120FCE700BF4C
:1058A0009407002010B58CB0089204900023059353
:1058B0000793069304AC0AA809F09DFA0CAB13E910
:1058C0000F008DE80F0094E80F00FFF731FF0CB0D8
:1058D00010BD000010B58AB0044608AB01AA002133
:1058E00005F04CFB054B9B68A34201D00AB010BDEC
:1058F00001A9024BD86801F061F9F7E7940700208D
:1059000010B58AB0044608AB01AA012105F036FBA8
:10591000054B9B68A34201D00AB010BD01A9024B00
:10592000186901F04BF9F7E79407002010B4002440
:10593000234622460AE0520092B242F001024000A1
:1059400080B2490089B201240133DBB20F2B0BD89E
:1059500080EA010C1CF4004FEDD1002CEBD140008B
:1059600080B2490089B2EFE7D04380B2400180B2F3
:105970005DF8044B704730B58BB005461C46BDF84A
:105980003C000E230993059200230693079304918C
:105990004301009363010193BDF84010FFF7C6FF78
:1059A0000290BDF838102046FFF7C0FF0390012396
:1059B00008936946284605F0BBF90BB030BD0000DE
:1059C00070B584B005460C46C821242001F07EF84D
:1059D0002B4EF0605021242001F078F830616421D2
:1059E000202001F073F87061B560347041F28833A3
:1059F000B380002373800122B26204F5E062B261D9
:105A0000F361736233620EE01E4A02EBC30C42F292
:105A10001071ACF804104FF0FF0E8CF806E002F89D
:105A200033300133DBB2072BEED9154EB279154B6B
:105A300003EBC4039A7100240294019440F20F73A3
:105A400000934FF4E063012221462846FFF793FFBD
:105A50000294019440F2FF63009323460222012145
:105A6000B068FFF788FF48F61201B06805F02BFB1D
:105A7000B3681A68136823F48033136004B070BDF0
:105A8000940700205407002010B40B4B00EB400299
:105A900003EB820153F82240084A14604968084A1F
:105AA000116000EB400003EB80039A68054B1A601D
:105AB0005DF8044B704700BFE4070020E0070020BA
:105AC000DC070020D807002010B504464FF0000E78
:105AD000704614E04FEA5C0C0133DBB2072B0AD8A6
:105AE00080EA0C0212F0010F4FEA5000F2D080F071
:105AF0008C00C0B2EEE70EF1010E5FFA8EFE8E450D
:105B000003D214F80EC00023E8E710BD002307E01D
:105B100003EB43018A001649002088500133DBB2B1
:105B2000022BF5D9134BDA6842F00102DA60042245
:105B30009A621A6842F080021A600F4B4FF4965234
:105B40001A804FF47A725A8040F6D8629A800B4BD2
:105B50003C221A8040F28A225A8096229A80084B70
:105B60000A221A806E225A804FF416729A80704769
:105B7000E4070020001000403C080020340800200A
:105B80002C080020022800D9704730B587B00D4698
:105B900014460E4B00EB400203EB820143F8225007
:105BA0008C6022044A600022A1B2284605F0BDFEA6
:105BB000019411230293002303930223049301A968
:105BC000284605F0C7FD07B030BD00BFE407002040
:105BD000054B00221A705A709A70DA701A715A7155
:105BE0009A71DA71704700BF14080020F8B50C46AE
:105BF00000EB40052A4951F8251000294BD01646E4
:105C00001F46002B18BF002A47D0264B1D7825B110
:105C10000125254B1D702846F8BDFFF735FFFFF71E
:105C2000D7FF224B1E60224B1F60224B55221A7059
:105C300022785A7062789A70A278DA70E2781A71D3
:105C400022795A7162799A71A279DA71E2791A72BB
:105C5000BE225A720023184A1370184A1370184A49
:105C60001370184A1370184A0A211170174A092133
:105C70001170174A1370174A13700122164B1A70CD
:105C8000084B1A70154B1988154BD96219681143C6
:105C900019605A61BDE70225BBE70525B9E700BFDA
:105CA000E407002008080020420800201008002017
:105CB0000C0800202008002045080020470800208C
:105CC00046080020430800204B0800204A08002016
:105CD0004908002048080020440800203C08002013
:105CE0000010004010B500EB40021C4B53F822306E
:105CF000002B30D01A4B1C7824B10124194B1C7096
:105D0000204610BDFFF7C0FEFFF762FF164BCC2206
:105D10001A7044225A700023144A1370144A1370E4
:105D2000144A1370144A1370022214490A70144959
:105D30000B7014490B7014490B70144B1A7001212D
:105D4000074B1970124B1A88124BDA621A680A4311
:105D50001A605961D2E70224D0E700BFE4070020AF
:105D600008080020420800202008002045080020E4
:105D70004708002046080020430800204B08002068
:105D80004A08002049080020480800204408002054
:105D90003C080020001000401F4B1B7813B91F4B1C
:105DA00003221A701E4B1B78E3B1012B20D170B572
:105DB0001C4B1D6895B11C480378427843EA0223C6
:105DC0001CB2067A0821FFF77FFE864214D0174BDB
:105DD0001B6800221A70134B00221A60144B002219
:105DE0001A7070BD134B104A92E8030083E8030059
:105DF0000F4B00221A70704704EB84035B001A46B5
:105E0000002B06DB12112A80084B1B6801221A7036
:105E1000E1E703F10F02F5E7430800204208002004
:105E20004408002010080020140800200C0800205E
:105E300008080020D007002010B5904B00221A61FE
:105E40008F4B1B78012B20D0022B00F08280002B7F
:105E500040F0AE808B4B1B78012B00F0E080022BD2
:105E600000F0E38023B9884A126888490968916183
:105E70000133DBB2834A1370022B00F2E580844ABF
:105E800032F813207D4BDA6292E0824B1B78012BB3
:105E900013D0022B27D023B97B4A12687B490968AB
:105EA00091610133DBB27B4A1370022B21D87A4A0D
:105EB00032F81320714BDA627AE0784A1278784926
:105EC0008A5C784909780A4112F0010F05D06E4AC0
:105ED0001268754909689161E3E76B4A12686B497A
:105EE00009689161DDE7684A12686F490968916144
:105EF000D7E7684B00221A70674B1A885F4BDA624B
:105F0000684A13780133DBB21370072B50D913465C
:105F100000221A70614A13780133DBB21370634AAE
:105F20001278934244D35D4B00221A70604B1B7869
:105F30003BB1534B02221A705E4B1A884F4BDA6208
:105F400036E04E4A136823F001031360FFF724FF85
:105F50002EE0504B1B78012B2BD0022B2FD023B9D6
:105F6000494A12684949096891610133DBB2494ADB
:105F70001370022B15D9134600221A70494A137860
:105F80000133DBB21370072B0BD9134600221A70B2
:105F9000424A13780133DBB21370454A12789342B8
:105FA00030D23C4B1A78434B33F81220334BDA6231
:105FB00010BD354A12683C4909689161D5E7324AFB
:105FC00012681169384A126811420CD0334A1078AD
:105FD000394C225C334991F800C0012101FA0CF1DF
:105FE0000A432254C1E72D4A1078334C215C2D4AD4
:105FF00092F800C0012202FA0CF2D24352B20A40D7
:106000002254B2E71D4A136823F001031360FFF71F
:10601000C3FE0023214A1370284A1370C1E71A4AAD
:10602000126821490968916122E7174A12681169CB
:106030001D4A1268114203D0214A0021117017E74E
:106040001F4A0121117013E700230E4A1370114AF1
:1060500013701B4B1B783BB1094B01221A700E4B7E
:106060001A88064BDA62A3E7044A136823F0010397
:106070001360124B00221A709AE700BF0010004014
:106080004508002047080020E0070020DC0700202A
:106090003C08002046080020340800204808002062
:1060A0002008002049080020D80700204B080020C5
:1060B0004A0800202C0800201408002008080020AE
:1060C000430800200023C3617047D0ED027A70EED0
:1060D000677A038807EE103AB8EEC77AC7EE876A88
:1060E00080ED020A80ED010A90ED036A20EE466A17
:1060F00080ED066AD0ED077AD0ED045A65EE805A3D
:1061000027EE257A77EEC77AC0ED077A90ED057A0B
:1061100026EEC77A80ED087A76EE277A77EE277A30
:10612000C0ED097AD0ED0C6AF4EEE67AF1EE10FAE1
:106130000ADDC0ED0A6A76EEC66A76EEC76AC0ED81
:10614000076A90ED0A0A7047D0ED0B6AF4EEE67A22
:10615000F1EE10FA08D5C0ED0A6A76EEC66A76EE60
:10616000C76AC0ED076AECE7C0ED0A7AE9E700000C
:1061700030B589B00446184D00226946284606F01D
:10618000FCFC002205A9284606F01DFD9DF81730ED
:1061900003F5FA63ADF81E309DF815308DF81C300C
:1061A0009DF816308DF81B309DF800308DF81830B2
:1061B0009DF801308DF819309DF802308DF81A30B5
:1061C0009DF814308DF81D3006AB03CB2060616064
:1061D000204609B030BD00BFC815002010B588B0FA
:1061E0006B4683E80300BDF8063030338DF81F306E
:1061F0009DF804308DF81D309DF803308DF81E3069
:106200009DF805308DF81C30114C002207A920465E
:1062100006F058FC9DF800308DF808309DF80130EC
:106220008DF809309DF802308DF80A3000228DF883
:106230000B200592069202A9204606F0DDFB43F2F0
:10624000F2220121204606F0DCFC08B010BD00BFA0
:10625000C815002000B585B002900023039302A862
:1062600008F046F903688DF8023043688DF8013074
:1062700083688DF80030C3688DF8033003690133FB
:106280008DF80430436903F26C73ADF806306B4649
:1062900093E80300FFF7A2FF05B05DF804FB0000E0
:1062A0000023054A1380054A1370054A1370054AF6
:1062B0001370054A13707047500800204E080020E4
:1062C0004D080020400A00204C08002010B53A4B31
:1062D0001B88002B53D0394B1B78374A10888342D8
:1062E0004FD8354B1B88142B4FD8334A13880133B2
:1062F0001380334B1A78334B1B789A4204D3002314
:106300002F4A13702C4A138010BD04EB44039A00EB
:106310002D4B1344DB7A052B27D80134294B1B78EE
:10632000A342D8DD04EB44039A00274B1344DA7AE6
:106330000132DA72B3F9041001F596739BB240F2A0
:106340000E629342E1D804EB44039A001E4B1344BF
:106350009B79012BD9D11C4B13440022DA7259804E
:106360000122188900F0A6FBCFE7174B1344002247
:10637000DA72B3F90210188900F09CFBCDE7002413
:10638000CCE7C0B2FFF7AEFCABE70D4C23780E486C
:1063900003EB43029100421810F801E01046931DF0
:1063A00004320A4901EBCE01807AFFF71FFC237803
:1063B0000133237099E700BF500800204C080020EB
:1063C0004E080020400A0020540800200000002051
:1063D00008B5074B1B78022B01D9012008BDFFF738
:1063E000D1FB034A1378013313700020F6E700BF96
:1063F0004C0800200F4B1B78282B18D810B50E4CDA
:1064000003EB430E04EB8E0C04F82E004FF4004017
:10641000ACF8020000208CF80600ACF808108CF8EC
:106420000A208CF80B000133024A137010BD0120C2
:10643000704700BF400A0020540800200023092BA9
:1064400005DC094A32F833200AB10133F7E7092B9A
:1064500008DC054A4FF0010C22F833C002EBC303FD
:1064600058805960704700BF4C0A00200023092B58
:1064700010DC094A02EBC3025288824201D0013388
:10648000F5E7054A02EBC30040680170002122F8DD
:1064900033107047704700BF4C0A00200023092BBF
:1064A00010DC094A02EBC3025288824201D0013358
:1064B000F5E7054A02EBC30040680180002122F89D
:1064C00033107047704700BF4C0A00200023092B8F
:1064D00010DC094A02EBC3025288824201D0013328
:1064E000F5E7054A02EBC30040680160002122F88D
:1064F00033107047704700BF4C0A002000B583B0CE
:1065000000238DF8003038238DF80130ADF80200FB
:106510000B680193034B1B680BB16846984703B0A7
:106520005DF804FB440A002098B900B583B000224E
:106530008DF8002039228DF80120ADF80200652386
:106540000193044B1B680BB16846984703B05DF894
:1065500004FB7047440A0020034B00221A60034BDF
:1065600001221A60704700BF440A0020480A002038
:1065700008B54378313B082B47D8DFE803F0051016
:106580001B26464646313C00214B1B680BB90020B8
:106590003CE041684088FFF751FF002036E01C4B8B
:1065A0001B680BB9002031E001794088FFF75EFFDE
:1065B00000202BE0164B1B680BB9002026E08188D9
:1065C0004088FFF76BFF002020E0114B1B680BB9E0
:1065D00000201BE041684088FFF778FF002015E0AD
:1065E0000B4B1B680BB9002010E041684088FFF797
:1065F00085FF00200AE0064B1B680BB9002005E070
:106600004088FFF791FF002000E0012008BD00BF97
:10661000480A0020014B1860704700BF440A002060
:1066200010B504468378082B00F2DB80DFE813F016
:106630000900170025004A006F009100B400E60031
:10664000D800037B2BB901220189406805F06DF960
:10665000C7E000220189406805F067F9C1E0037BCB
:106660002BB900220189406805F05FF9B9E00122E9
:106670000189406805F059F9B3E00388322B13D83B
:10668000037B5BB900220189406805F04EF923883D
:10669000632B40F2A68000232380A2E0012201891F
:1066A000406805F042F9F2E7037B2BB9012201892A
:1066B000406805F03AF9EAE700220189406805F0F0
:1066C00034F9E4E703880A2B13D8037B5BB9002273
:1066D0000189406805F029F92388132B40F2818055
:1066E000002323807DE001220189406805F01DF927
:1066F000F2E7037B2BB901220189406805F015F907
:10670000EAE700220189406805F00FF9E4E7038811
:10671000052B0DD8037B2BB900220189406805F0B9
:1067200004F95EE001220189406805F0FEF858E0B6
:10673000037B43B901220189406805F0F6F8002384
:10674000A37023804DE000220189406805F0EDF838
:10675000F5E70388B3F5967F0DD8037B2BB90022AC
:106760000189406805F0E1F83BE0012201894068B9
:1067700005F0DBF835E0037B43B90122018940686D
:1067800005F0D3F80023A37023802AE000220189BA
:10679000406805F0CAF8F5E70388042B12D8037B9C
:1067A00053B900220189406805F0BFF82388632BA4
:1067B00017D90023238014E001220189406805F0E5
:1067C000B4F8F3E7037B2BB901220189406805F097
:1067D000ACF8EBE700220189406805F0A6F8E5E790
:1067E00039B923884FF6FF72934201D001332380D9
:1067F00010BD0189406805F09DF8F2E70388092B78
:1068000012D8037B53B900220189406805F08DF846
:106810002388C72BE5D900232380E2E701220189E1
:10682000406805F082F8F3E7A3F10A0292B2272A42
:106830000DD8037B2BB901220189406805F075F85A
:10684000E6E700220189406805F06FF8E0E7A3F170
:10685000320292B2092A0DD8037B2BB9002201899A
:10686000406805F062F8D3E701220189406805F02D
:106870005CF8CDE7A3F13C0292B2272A0DD8037B46
:106880002BB901220189406805F04FF8C0E70022CA
:106890000189406805F049F8BAE7A3F1640292B2B1
:1068A000312A0DD8037B2BB900220189406805F0FD
:1068B0003CF8ADE701220189406805F036F8A7E70A
:1068C000963B9BB2312BA3D8037B2BB901220189C4
:1068D000406805F02AF89BE700220189406805F02E
:1068E00024F895E710B584B0EC468CE80F00069CC0
:1068F0009CE80F0084E80F0000212046FFF790FE7F
:1069000004B010BD30B587B0054600238DF80A30BD
:10691000ADF808304368049303680393037A8DF855
:106920001430204B009302AC94E80F00FFF7DAFF1D
:106930002B690493EB6803932B7D8DF814301A4B6D
:10694000009394E80F00FFF7CDFFEB690493AB6968
:10695000039395F820308DF81430144B009394E88D
:106960000F00FFF7BFFFAB6A04936B6A039395F8C0
:106970002C308DF814300E4B009394E80F00FFF785
:10698000B1FF6B6B04932B6B039395F838308DF844
:106990001430084B009394E80F00FFF7A3FF07B0F3
:1069A00030BD00BFDC0A0020CC0A0020BC0A002059
:1069B000AC0A00209C0A002008B500210948FFF716
:1069C0002FFE00210848FFF72BFE00210748FFF7A4
:1069D00027FE00210648FFF723FE00210548FFF7A8
:1069E0001FFE08BDDC0A0020CC0A0020BC0A0020E3
:1069F000AC0A00209C0A0020044B9B78834203D001
:106A0000024B987000221A80704700BFCC0A002009
:106A1000044B9B78834203D0024B987000221A806B
:106A2000704700BFAC0A0020044B9B78834203D020
:106A3000024B987000221A80704700BFDC0A0020C9
:106A4000044B9B78834203D0024B987000221A803B
:106A5000704700BF9C0A0020002208E0064B00217E
:106A600003F8221003EB8203597059800132B2F50A
:106A7000AF7FF3DB704700BFEC0A0020B0F5AF7FBB
:106A80000ED20B4B13F8203023B919B10B8843F009
:106A900001030B80064B03EB8003B3F90200704740
:106AA00019B10B8843F001030B800020704700BF31
:106AB000EC0A0020B0F5AF7F05D2034B03F820208D
:106AC00003EB800359807047EC0A002070B505463F
:106AD0000E46102007F03EFB044605FB06F007F0CB
:106AE00039FB2060E68000232381638123732571B5
:106AF000204670BD60B1027B2AB9028943899A425F
:106B000004D0002000E00020C0B270470120FBE765
:106B10000120704770B5A0B10C46064672B6FFF76B
:106B2000E9FF054618B162B60125284670BD3368F5
:106B30007189327902FB0131204608F05CF962B6B6
:106B4000F3E70125F1E7A0B110B5044672B6FFF7EF
:106B5000D1FF58B963890133E28893FBF2F102FB5C
:106B6000113363810023237362B610BD62B6012026
:106B7000FBE70120704770B5F0B10D46044672B6D0
:106B8000FFF7B8FF064618B162B60126304670BD61
:106B900023686189227902FB0131284608F02BF92C
:106BA00063890133E28893FBF2F102FB11336381C5
:106BB0000023237362B6E9E70126E7E718B310B5AF
:106BC000044603680089227902FB003008F013F9BB
:106BD000237B3BB163890133E28893FBF2F102FB33
:106BE0001133638123890133E28893FBF2F102FBC5
:106BF00011339BB223816289934214BF0023012386
:106C00002373002010BD01207047000008B5034623
:106C100009498A6842F480528A60B0F5FA4F01D976
:106C20004FF4FA430548064A026006224260DB0838
:106C3000836004F097FE08BD002004E0EC150020FE
:106C40000030004008B5024804F0C0FE08BD00BF97
:106C5000EC150020F8B50446038803F47F6390F830
:106C60001CE04FEA0E2000B294F81DC04CEA000070
:106C7000A67F310209B2E57F294394F82020120251
:106C800012B294F821703A43B3F5A26F1AD009D822
:106C9000B3F5887F11D0B3F5447F12D1C0B200F0B4
:106CA00025FE0EE0B3F5C06F0BD10D48FFF7B2FC27
:106CB00004F11C00FFF75CFC03E0D2B280B2FFF7E6
:106CC000F9FEF8BD4FEA0C4C4CEA0E6C4CEA062C6F
:106CD00045EA0C00FFF7BEFA0020FFF799FEF0E747
:106CE000355400082DE9F04F95B00025CB4B1D70B1
:106CF00002F054FC02F0C2F8FEF708FFFFF7D0FAEA
:106D0000FFF7AAFEC64801F053FC0321C548FEF771
:106D100057FE0320FEF784FA00F0B2FD0722C249B5
:106D2000C248FEF709FA00F05DFC01F09FFF40F653
:106D3000B830FFF76BFF01F0F3F801F037FD00F01A
:106D4000D7FAFFF709FC4FF400530693B84E0596A7
:106D500001248DF81C404FF400730993B54B089340
:106D60008DF828404FF480720C920B938DF83440CC
:106D700008230F93B04B0E938DF840404FF480439F
:106D8000129311968DF84C4005A8FFF7BBFD022029
:106D9000FFF74AFE2046FFF73BFEADF804504FF0E8
:106DA0000A0AADF806A08DF808408DF80A404FF4A5
:106DB000FA78ADF8108002278DF809708DF80B5025
:106DC00001A8FEF7C7FBADF804404FF00B09ADF882
:106DD00006908DF808408DF80A40ADF81080032326
:106DE0008DF809308DF80B5001A8FEF7B3FBADF814
:106DF00004704FF00C0BADF806B08DF808408DF81C
:106E00000A40ADF8108004238DF809308DF80B503E
:106E10000DEB0300FEF79EFB802231462846FFF76C
:106E2000D7FA402231462046FFF7D2FA2A46782187
:106E30002520FFF7DFFA2A4667211120FFF7DAFA4B
:106E40002A4668211220FFF7D5FA2A4669211A201E
:106E5000FFF7D0FA2A466A211B20FFF7CBFA2A4611
:106E60006B215846FFF7C6FA2A466C210D20FFF722
:106E7000C1FA2A466D210E20FFF7BCFA2A466E2180
:106E80001F20FFF7B7FA224664211C20FFF7B2FA51
:106E9000224665211320FFF7ADFA22466621102015
:106EA000FFF7A8FA224672215046FFF7A3FA2246BE
:106EB00073210F20FFF79EFA224674214846FFF700
:106EC00099FA224675210720FFF794FA22466F218E
:106ED0002046FFF78FFA224670213846FFF78AFADC
:106EE0004FF47A717820FEF70BFA40F6B831502053
:106EF000FEF706FA40F6B8315120FEF701FA40F6E7
:106F0000B8315220FEF7FCF940F6B8315320FEF7B5
:106F1000F7F940F6B8315A20FEF7F2F940F6B831E9
:106F20005B20FEF7EDF940F6B8315C20FEF7E8F99A
:106F300040F6B8315D20FEF7E3F940F6B831642041
:106F4000FEF7DEF940F6B8316520FEF7D9F940F6D4
:106F5000B8316620FEF7D4F940F6B8316720FEF765
:106F6000CFF940F6B8316820FEF7CAF940F6B831DB
:106F70006920FEF7C5F940F6B8316A20FEF7C0F97E
:106F800040F6B8316B20FEF7BBF940F6B8316C2003
:106F9000FEF7B6F940F6B8316D20FEF7B1F940F6CC
:106FA000B8316E20FEF7ACF940F6B8316F20FEF72D
:106FB000A7F940F6B8317020FEF7A2F940F6B831D3
:106FC0007120FEF79DF940F6B8317220FEF798F96E
:106FD00040F6B8317320FEF793F940F6B8317420CB
:106FE000FEF78EF940F6B8317520FEF789F940F6C4
:106FF000B8315620FEF784F940F6B8315520FEF737
:107000007FF940F6B8316220FEF77AF940F6B831E0
:107010006320FEF775F915B0BDE8F08F651000200C
:10702000AC140020FC150020241600206C16002053
:107030000008004800040048001C004800B58BB060
:10704000012000F071FB00F015F900F0B5F9FEF732
:1070500081FB01224FF402710B20FFF72BFDFEF79D
:107060001FFB02F041FB01A8FEF701F90128F8D14E
:1070700001A8FFF7EFFDF6E700B583B06846FFF71C
:1070800077F89DF80330084A12789A4202D103B08B
:107090005DF804FB044A137001F06CFE00F034FC50
:1070A00001F012F9F3E700BF6410002008B510B139
:1070B000012805D008BD0129FCD100F09FF9F9E7AE
:1070C000012904D000F050FF00F08AF9F2E700F047
:1070D0005FFF054B1B78012BECD10020024B187091
:1070E0000146FEF770F9E5E76510002008B50B28AA
:1070F00006D00C2807D00A2801D100F08BF908BD72
:1071000000F05AF9FBE70A4B1B7843B1012BF6D18B
:107110000020074B18700146FEF755F9EFE7044BC6
:1071200001221A704FF416710220FEF74CF9E6E7BF
:1071300065100020022802D0042800D0704708B54E
:1071400001F02EFE08BD000008B5C0F16400FDF797
:10715000F9FA3BA3D3E90023FDF788FCFDF7B6FD60
:1071600000EE100A09F0A4F9DFED2F7A60EE277A1D
:1071700017EE900AFDF7F8FA27A3D3E90023FDF7ED
:1071800075FCFDF7A3FD07EE900A284B1860B0EEE2
:10719000087A77EEC77A264BC3ED007AF5EEC07A0F
:1071A000F1EE10FA35D4224B93ED007ADFED217A1F
:1071B000B4EEE77AF1EE10FA01DDC3ED007A1C4B74
:1071C0001868FDF7D1FA16A3D3E90023FDF724FBD5
:1071D00000224FF08043FDF769F9FDF777FD07EED8
:1071E000900A154B1860B2EE047A67EE877A17EEB4
:1071F000900AFDF7B9FA41EC100B09F093F951EC44
:10720000100BFDF71BFD00B20C4B188000F004FBC7
:1072100008BD00221A60C6E7182D4454FB2109401E
:10722000176CC1166CC1B63F0000344374100020C7
:10723000701000200000B4426C1000206810002084
:1072400033333333336359407047000008B50020AF
:10725000FFF77AFF044B01221A700023034A1380C0
:10726000034A138008BD00BF661000207A1000207A
:107270007810002010B5012204210F4804F055FBBE
:107280000E4C01224FF48051204604F04EFB0022A8
:107290004FF40061204604F048FB00224FF4806167
:1072A000204604F042FB01220821054804F03DFB82
:1072B000FFF7CCFF10BD00BF000C004800080048DD
:1072C0000004004810B550280AD9074B50221A80F4
:1072D000054C2088FFF738FF2288044B1A8010BD28
:1072E000014B1880F4E700BF781000207A100020CE
:1072F000074B084A1A63084ADA6205221A804FF0DF
:107300007F52DA60054A1A61054A5A61704700BF28
:107310007C10002000000C42000030C10AD7233C42
:107320000000504108B5042807D8DFE800F0030A40
:1073300015242E00194B00221A70194B00221A80B6
:1073400008BD0020174B1880FFF7BCFFFFF77EFF3A
:10735000124B01221A70F0E71348FEF7B3FE4620E5
:10736000104B1880FFF7AEFF104B114A1A600B4B01
:1073700002221A70E1E70F4B00221A800B4B0C4AD5
:107380001A60064B03221A70D7E70920054B1880B4
:10739000FFF798FF014B04221A70CEE7BC100020C3
:1073A000B8100020BA1000207C100020B01000207F
:1073B00000004843B610002008B5074B01221A70A0
:1073C000064B1B883B2B03D81046FFF7ABFF08BDCD
:1073D0000320FFF7A7FFFAE7BD100020B41000203C
:1073E00008B5054B1B78033BDBB2012B00D908BD68
:1073F0000220FFF797FFFAE7BC10002008B5044B06
:107400001B78012B00D008BD0220FFF78BFFFAE7A5
:10741000BC10002008B500200A4B1870FFF782FF4F
:10742000094B1B88312B05D85020074B1880FFF7DC
:1074300049FF08BD0020044B1880FFF743FFFFF70A
:1074400005FFF6E7BD100020BA1000201B4B1B887B
:10745000042B03D80133194A1380704700B583B059
:10746000164B01221A800DF106017120FFF706FB71
:10747000FDF768F90022124BFDF7F8FAFDF726FC3C
:1074800000EE100A0F4BD3ED007A30EE670A0E487B
:10749000FEF71BFEBDEEC00A10EE103A1BB214330D
:1074A0001BB2372B03DC082B02DC092300E0372357
:1074B000064A138003B05DF804FB00BFB61000203D
:1074C00000002440B01000207C100020BA100020E2
:1074D00000B583B00DF106017120FFF7CFFA3B4BE9
:1074E00083FB0023C017C0EBA30080B2384B188089
:1074F000384B1B8842F20F72934202D80133354A4F
:107500001380354B1B78042B08D8DFE803F0030FFA
:1075100018344700314B1B78012B02D003B05DF8C3
:1075200004FB2F4B1888FFF7CDFEF7E72B4B1B789A
:10753000012BF3D12A4B1888FFF7C4FEEEE7FFF7C3
:1075400085FF264B1B78012B0CD0214B1B88C82BA9
:107550000DD8204B1B88B3F5E16FDFD30320FFF775
:10756000E1FEDBE71E4B1888FFF7ACFEEDE70320DA
:10757000FFF7D8FEEDE7FFF769FF184B1B78012BEB
:1075800007D0134B1B888B2BC8D80420FFF7CAFEEB
:10759000C4E7134B1888FFF795FEF2E7A0280CD834
:1075A0000B4B1B884F2B0CD90C4B1B78012BB5D1E7
:1075B0000B4B1888FFF786FEB0E70320FFF7B2FEFB
:1075C000EEE70120FFF7AEFEEEE700BF67666666F6
:1075D000B4100020B8100020BC100020BD10002006
:1075E000BA100020054B60221A6000225A609A608F
:1075F000DA601A615A619A61704700BFC0100020BA
:1076000010B5044610F0010F32D001224FF4805122
:107610002C4804F08AF914F0020F30D001224FF404
:107620000051284804F081F914F0040F2ED00122F3
:107630004FF48041234804F078F914F0080F2CD05F
:10764000012204211F4804F070F914F0100F2AD011
:1076500001224FF480611B4804F067F914F0200FF9
:1076600028D001224FF40061164804F05EF910BDE5
:1076700000224FF48051134804F057F9CBE7002261
:107680004FF400510F4804F050F9CDE700224FF4B9
:1076900080410C4804F049F9CFE700220421094851
:1076A00004F043F9D1E700224FF48061054804F06B
:1076B0003CF9D3E700224FF40061024804F035F9A9
:1076C000D5E700BF0004004808B530B10122082109
:1076D0004FF0904004F029F908BD002208214FF036
:1076E000904004F022F9F7E708B530B101220421F7
:1076F0004FF0904004F019F908BD002204214FF02A
:10770000904004F012F9F7E708B530B101220221E8
:107710004FF0904004F009F908BD002202214FF01B
:10772000904004F002F9F7E708B528B101222021C2
:10773000044804F0FAF808BD00222021014804F0B2
:10774000F4F8F8E70004004838B50446012114486D
:1077500004F0E4F8002C03DB642C02DD642400E078
:1077600000244FF46B7303FB04F40E4B83FB0423E0
:10777000E417C4EB63140C4D6C600C4C04212046E0
:1077800005F03AFE04222946204605F0EDFC20B91A
:107790000421064805F094FD38BD01F0C1FCF7E76F
:1077A000000400481F85EB51C01000207C1500200C
:1077B00038B504460121144804F0B0F8002C03DB6E
:1077C000642C02DD642400E000244FF46B7303FB9F
:1077D00004F40E4B83FB0423E417C4EB63140C4D39
:1077E0006C600C4C0021204605F006FE0022294664
:1077F000204605F0B9FC20B90021064805F060FDDF
:1078000038BD01F08DFCF7E7000400481F85EB51FF
:10781000C01000207C15002038B504460121144812
:1078200004F07CF8002C03DB642C02DD642400E00F
:1078300000244FF46B7303FB04F40E4B83FB04230F
:10784000E417C4EB63140C4D6C600C4C082120460B
:1078500005F0D2FD08222946204605F085FC20B916
:107860000821064805F02CFD38BD01F059FCF7E76A
:10787000000400481F85EB51C01000207C1500203B
:107880000E4B5A221A8000230D4A13800D4A3F21C5
:1078900011800D4A022111700C4A13800C4A13808A
:1078A0000C4A13800C4A13800C4A13800C4A136054
:1078B0000C4A13700C4A1380704700BF001100205F
:1078C00008110020061100200411002002110020E0
:1078D000EA100020FE100020FC100020E81000201C
:1078E000E4100020E0100020DE100020012802D06B
:1078F000034B19807047034B01221A70F8E700BF51
:10790000DE100020E01000200023034A1380034A09
:107910001370034A13707047E8100020E010002035
:107920000511002010B50024034B1C802046FFF7F2
:1079300067FE024B1C8010BD0811002002110020C0
:1079400000231946184605E00F4A32F81C2011445E
:107950000133DBB2052B09D89C460C4A12881A4128
:1079600012F0010FF0D0013000B2EDE700EB800023
:107970004300074A1380074BA3FB0131C1F3CF013A
:10798000054B1980704700BFF0100020081100203F
:1079900002110020CDCCCCCCEC10002008B51D4B42
:1079A000B3F900302C2B20DC1B4B1B88BBB91A4AC7
:1079B000138843F040039BB213805B081380164B7F
:1079C0001888164A1288104080B21880C0B2FFF79B
:1079D00017FEFFF7B5FF08BD5B000F4A13800E4B83
:1079E0001B8813F0200FF7D0E1E70B4B1B885BB926
:1079F000094A13885B009BB2138043F00103138094
:107A0000DDE75B08044A1380034B1B8813F0010F6A
:107A1000F7D0EDE7DC10002008110020061100204F
:107A200008B5194BB3F900302C2B1CDC174B1B8805
:107A30009BB9164A13885B001380144B1888144AAC
:107A40001288104080B21880C0B2FFF7D9FDFFF74E
:107A500077FF08BD5B000D4A13800C4B1B8813F0A9
:107A6000200FF7D0E5E7094B1B883BB9074A13887D
:107A70005B081380E1E75B08044A1380034B1B8813
:107A800013F0010FF7D0F1E7DC10002008110020FF
:107A90000611002010B5C0F10A02244BB3F90030E2
:107AA0009A4211DA224A1388013313800023214AB3
:107AB0001380214A13701E4B1B88072B1ED81D4BA9
:107AC0001B88072B22D810BD40420133984205DCA9
:107AD0000023174A1380174A1380ECE7154A1388CE
:107AE00001331380124B00221A80144BB3F900307B
:107AF000002BE0D1104B02221A70DCE700240C4B63
:107B00001C80FFF74BFF0C4B1C70D8E70024094B7F
:107B10001C80FFF785FF084B1C70084BB3F9003041
:107B2000002BD0D1044B02221A70CCE7EA100020BF
:107B3000FE100020FC100020041100200211002083
:107B40002DE9F04385B00120FDF722FBFCF7FAFD9B
:107B5000C5A3D3E90023FCF75FFEFDF797F84FF4C8
:107B60007A7505FB00F39B08C14EA6FB0323C3F304
:107B70008F03C04C23800220FDF70AFBFCF7E2FDD7
:107B8000B9A3D3E90023FCF747FEFDF77FF805FB17
:107B900000F39B08A6FB0323C3F38F03638003203A
:107BA000FDF7F6FAFCF7CEFDAFA3D3E90023FCF70F
:107BB00033FEFDF76BF805FB00F39B08A6FB0323E0
:107BC000C3F38F03A3800420FDF7E2FAFCF7BAFDAC
:107BD000A5A3D3E90023FCF71FFEFDF757F805FB2B
:107BE00000F39B08A6FB0323C3F38F03E380052068
:107BF000FDF7CEFAFCF7A6FD9BA3D3E90023FCF723
:107C00000BFEFDF743F805FB00F39B08A6FB0323DF
:107C1000C3F38F0323810620FDF7BAFAFCF792FD28
:107C200091A3D3E90023FCF7F7FDFDF72FF805FB3F
:107C300000F39B08A6FB0363C3F38F036381FFF785
:107C40007FFE01228C4B19785020FEF733FF8B4CBE
:107C50000122B4F900105120FEF72CFF0122884BBD
:107C6000B3F900105220FEF725FFB4F900400DF1E2
:107C70000E010B20FEF702FF04FB00F0814B83FB9B
:107C80000023C017C0EBA30005FB00F07E4BA3FB55
:107C900000307E4A136803EBD0231360AB4207D950
:107CA0007B490A8801320A80A3F57A73774A136008
:107CB000764B1B68B3F57A7F07D975490A8801327C
:107CC0000A80A3F57A73714A13600122704BB3F9ED
:107CD00000105320FEF7EEFE01A8FEF749FA9DF8CA
:107CE0000830053BDBB2032B00F29580694B46223E
:107CF0001A800023ADF80E300DF10E017820FEF74A
:107D0000BDFE07460DF10E016E20FEF7B7FEDFF84F
:107D1000748188FB0023C017C0EBA3005E4B188062
:107D20000DF10E010A20FEF7A9FE06460DF10E0127
:107D30000D20FEF7A3FE054688FB0023C417C4EB05
:107D4000A30424B20DF10E010E20FEF797FE88FB6E
:107D50000028C317C3EBA8030FFA83F80DF10E0137
:107D60002D20FEF78BFE8146BDF80E30002B56D13C
:107D7000622E05DD24B90123484A1370484A137066
:107D80005F2E03DD464B1B78012B4ED04FF4004194
:107D9000444803F0C3FD01284BD00121424803F0C1
:107DA000BDFD00284BD00420FDF740FA00284ED03E
:107DB000B7F5257F51DA384BB3F90020354BB3F9CD
:107DC00000309A4276DC5E2E0ADC344B00221A70B8
:107DD000294B03221A70354BB3F90030002B6FD0BA
:107DE0002E4B1B78012B6ED0304BB3F90030002B9B
:107DF00000F08B802A4A1278002A40F08680002BFF
:107E00007DDD5B422A4A13804046FFF743FE1A4B52
:107E10000A221A7018E01F4B5A221A8069E7164B83
:107E200007221A70FFF77EFD0EE01C4B01221A702C
:107E3000ACE7114B05221A70FFF774FD04E00E4BFE
:107E400004221A70FFF76EFD05B0BDE8F0830A4BFF
:107E500008221A70FFF766FDF6E7074B06221A7034
:107E6000FFF760FDF0E700BF0000000000E2E93F1F
:107E7000310CC330F010002004110020021100204A
:107E8000EC10002067666666C5B3A291E41000207E
:107E9000E810002000110020DC1000200511002057
:107EA000E01000200008004800040048DE10002018
:107EB000EA100020184B01221A70FFF733FDC3E7C8
:107EC000FFF730FD8CE7602E0DDD132D13DC42F241
:107ED0000F73994503DD114B5F221A8007E00F4BAA
:107EE00000221A8003E00D4B4FF6FE721A804046C6
:107EF000FFF7D0FDA8E7094B0F221A80F7E7064BE2
:107F000003221A70FFF70EFD9EE7034B03221A703F
:107F1000FFF708FD98E700BF04110020EA100020D9
:107F20000023094A1370094A1370094A1370094A59
:107F300006211170084A1370084A1370084A13602A
:107F4000084A1370704700BF201100201E11002046
:107F50001F1100201C1100201D11002018110020ED
:107F6000141100200A11002008B5074B1B7813B923
:107F7000064B1B7803B908BD034B01221A701E2162
:107F80000220FDF720FAF6E70A1100202011002058
:107F900008B5064B1B78012B00D008BD0020034B11
:107FA00018700146FDF70FFAF7E700BF0A1100202D
:107FB0002DE9F04F87B00023ADF816300DF1160112
:107FC0006420FEF75BFD0546B64E86FB00234FEAB4
:107FD000E079C9EBA3090DF116017120FEF74EFD02
:107FE000824686FB00234FEAE078C8EBA3080DF138
:107FF00016016520FEF742FD07460DF116016620C9
:10800000FEF73CFD04460DF116016720FEF736FD34
:1080100002900DF116017520FEF730FD0DF11601ED
:108020006E20FEF72BFD01900DF116016920FEF781
:1080300025FD86FB0036C317C3EBA606BDF8161058
:10804000002976D10FFA89F90FFA88F8834636B2FB
:10805000E71BBAB23BB20393934B1B78013BDBB2F5
:10806000012B23D9914A13680B441360904AA2FB59
:108070000323DB0A8F4F3B80012209B26220FEF707
:1080800019FD0122B7F900106320FEF713FD854B9F
:1080900083FB0423E417C4EBA30424B2824B1B78B4
:1080A000032B10D8DFE803F00958729002EB42036B
:1080B000C2EBC302920091B2D4E77F4B00221A7048
:1080C000B5F5167F38DA7D4B00221A70019BB3F5A7
:1080D000707F02DB794B01221A7040F265339D42BA
:1080E00002DD764B02221A706F4B1B78013BDBB22C
:1080F000012B40F28D80714B1B78022B00F09B808E
:10810000032B00F09F80012B40F0A3800220FEF79C
:1081100097FC0120FEF770FC694A138801339BB27B
:108120001380664A127822B95F4A1278022A00F058
:10813000978007B0BDE8F08F4FF6FF720121002055
:10814000FDF722F90120FFF7BFFA5E4B00221A600B
:10815000554B01221A70B6E7029BB3F5FA7F02DB9A
:10816000514B02221A70B5F5FA7FACDA554B1B68F9
:108170003C2BA8D90020FFF7A7FA012200210846CE
:10818000FDF702F9484B00221A709CE740F24B437E
:108190009A4598DC039B092B95DC40F251339D42B4
:1081A00091DC484B1B683C2B8DD90020FFF78CFAE3
:1081B0000020FEF745FC012200210846FDF7E4F807
:1081C000394B03221A707EE740F24D239D420BDCAF
:1081D000354B00221A70B5F52F7FFFF674AF0236CB
:1081E000B1457FF770AF03E040F265339D42F2DDA9
:1081F0004FF6FF7201210020FDF7C6F80120FFF7BE
:1082000063FA304B00221A60274B01221A705AE79A
:108210002C4A136801331360B5F5437FFFF66BAF4B
:108220000334A1457FF767AF3C2B7FF664AF234B48
:1082300003221A705FE70320FEF702FC0220FEF71C
:10824000DBFB69E70320FEF7FBFB0320FEF7D4FB13
:1082500062E70020FEF7F4FB0020FEF7CDFB5BE7B2
:108260003C2B7FF666AF164B00221A80A8F17E08E1
:108270001FFA88F8B8F1170F0FD8BBF52F7F0CDA6B
:108280000D4B1B78022B3FF654AF0520FEF7D8FBB1
:10829000094A1378013313704BE7074B00221A7019
:1082A00047E700BF676666662011002014110020B2
:1082B000C5B3A29110110020181100201F11002039
:1082C0001A1100200C1100200023024A1360024AF8
:1082D00013807047141100201011002000000000CE
:1082E0002DE9D0430020FCF753FF0446FCF72AFA9F
:1082F00032A3D3E90023FCF78FFA00222C4BFCF7C2
:10830000D5F821A3D3E90023FCF786FA02460B46F1
:108310001FA1D1E90001FCF7C7F81FA3D3E900238F
:10832000FCF7A4FB804689460022224BFCF774FA36
:1083300006460F4642464B4619A1D1E90001FCF71B
:10834000B3F802460B4630463946FCF78FFB002255
:10835000184BFCF7A9F814A3D3E90023FCF75CFA47
:10836000FCF76CFC01B2144B198014B1B4F5805FBA
:1083700005D100227120FEF79DFBBDE8D0830122CC
:108380007120FEF797FBF8E7000000000088C3406B
:108390007E67A3DE48DD99410000000000F3E6405F
:1083A0000000000000E2A940E17A14AE47E1044079
:1083B00000004E4000408F402211002000000000CD
:1083C00000E2E93F10B50C46002308E01E4901EB2E
:1083D0008C029480012201F82C2010BD0133312B36
:1083E00017DC03EB430C184A02EB8C0252888242E2
:1083F000F4D1002CEAD1144903EB43024FEA820E78
:1084000001EB82024FF0000CA2F804C001F80EC08C
:10841000E4E7002300E00133312BDEDC03EB430211
:10842000094911F82220002AF5D1002CF3D003EBE2
:10843000430201EB82025080948003EB430301224C
:1084400001F82320C9E700BF2C11002008B5074B15
:108450001878012808D001221A700A220449054B15
:10846000186805F0D7F8002008BD00BF8813002069
:108470008C1300208413002010B582B00446002322
:10848000ADF806300DF10601FEF7F8FABDF806204A
:10849000013A18BF0122094B02211970212159709C
:1084A000210A9970DC7001121971587100219971BB
:1084B000DA71FFF7CBFF02B010BD00BF8C130020B4
:1084C00008B5084B06221A7010225A7001684268DB
:1084D000C3F80210C3F8062003229A70FFF7B6FF14
:1084E00008BD00BF8C13002038B52B4A1178537893
:1084F00043EA01231BB29178D07840EA012000B210
:108500001479517941EA042140F22272934231D028
:108510000DB211DCB3F5C06F36D040F21372934246
:108520001FD0B3F5907F15D1C243D20F2946C0F3B7
:108530000E00FEF7BFFA0DE040F2247293421DD008
:1085400040F27772934205D1144B01221A70144BFA
:1085500000221A800A221049124B186805F0CAFD41
:1085600038BD84B2A9B22046FFF72CFF2046FFF7A2
:1085700083FFEFE7C0B2FFF7D7F8EBE7FFF7E4F8C8
:108580002846FFF715F9E5E70748FEF743F80748DF
:10859000FDF7EEFFDEE700BF981300202811002052
:1085A0002611002084130020C18400089A130020A3
:1085B00008B5084B18600023074A1370074A137068
:1085C000074A1370074A13700A22074905F092FD03
:1085D00008BD00BF841300208A13002089130020E7
:1085E0008813002028110020981300202E4A138899
:1085F0000A339BB2138040F6B832934202D92B4B18
:1086000000221A70294B1B78002B4BD070B5284ADA
:1086100013880A339BB21380B3F57A7F01D8002305
:1086200016E0134600221A80FCF70DFE012201B26B
:108630001046FEF73FFA0120FFF71EFFEFE703EBBE
:1086400043011C4A02EB8102D1880A31D1800133F7
:10865000312BF4DD002400E00134312C21DC04EB6B
:108660004403144A12F82330012BF5D104EB4402E1
:10867000104B03EB82039B88002BEDD011460D4A73
:1086800002EB8102D2889342E6D80A4D660005EBE0
:1086900081035888FFF7F0FE264405EB860500238A
:1086A000EB8070BD704700BF26110020281100200C
:1086B000241100202C110020044B1B68834200D0A1
:1086C0007047034B00221A70FAE700BF84130020A2
:1086D0008813002008B5064B1B68834200D008BDF4
:1086E0000123044A1370044A1370FFF7FDFEF6E7F6
:1086F00084130020891300208A13002010B5002461
:10870000054B1C702046FEF7FFFF01222146204644
:10871000FCF73AFE10BD00BFAD13002010B50B4BA7
:1087200041221A70632800D81870084B1878FFF798
:108730000BF80124064B1C704FF6FF7221460020F7
:10874000FCF722FE2046FEF7DFFF10BDAB13002032
:10875000AD13002010B50024054B1C702046FEF719
:10876000C3FF012221462046FCF70EFE10BD00BFCC
:10877000AC13002010B50B4B41221A70632800D8AF
:108780001870084B1878FFF713F80124064B1C707B
:108790004FF6FF7221460020FCF7F6FD2046FEF75B
:1087A000A3FF10BDAA130020AC13002010B5D723DF
:1087B0000F4A13800F4A13800F4A13800F4BC322B6
:1087C0001A800F4B14221A800E4B05221A800E4B72
:1087D00013221A800D4B06221A803C200C4B187075
:1087E0000C4C2070FEF7B0FF2078FEF7E1FF10BDC3
:1087F000C0130020BE130020BC130020BA130020B9
:10880000B8130020B6130020B4130020B2130020C8
:10881000AB130020AA1300202DE9F04F8BB008A85D
:10882000FDF7A6FC9DF820900023ADF81E300DF159
:108830001E017C20FEF722F907460DF11E016F2074
:10884000FEF71CF901900DF11E017E20FEF716F9CE
:1088500080460DF11E017220FEF710F90290BDF85E
:108860001E301BB917B1B8F1000F06D1FFF772FF28
:10887000FFF744FF0BB0BDE8F08F0DF11E0169203A
:10888000FEF7FCF805460DF11E016A20FEF7F6F82A
:1088900006460DF11E016B20FEF7F0F804460DF1BF
:1088A0001E016C20FEF7EAF882460DF11E016D20D4
:1088B000FEF7E4F883460DF11E016E20FEF7DEF8A8
:1088C00004900DF11E017120FEF7D8F805900DF10E
:1088D0001E017F20FEF7D2F80390AA4800230380F0
:1088E000354405EBD5756B10A3F5967303EB431276
:1088F00003EB8203A44A82FB0351DB17C3EBA10302
:108900000380264406EBD6767610A6F5967606EB1F
:10891000461106EB810682FB0651F617C6EBA1064F
:1089200016FA83F39DB20580544404EBD4746110AD
:10893000A1F59671652303FB01F182FB0134CB178E
:10894000C3EBA4032B4419B20180904C21800AEBA5
:108950000B0000EBD0704010A0F5C8706C2505FB33
:1089600000F082FB0065C017C0EBA50010FA83F38E
:108970009BB223800498584400EBD0704010A0F5BF
:10898000C8702E2505FB00F082FB0052C017C0EB1B
:10899000A2000344238001225620FEF78BF8012217
:1089A000B4F900105520FEF785F8794B1D88794BF6
:1089B0001C88794B1B88994505D3784B1B889945B2
:1089C00001D2774B1D88774B1B88994505D3764B91
:1089D0001B88994501D2754B1C88754B1B78002B61
:1089E00000F0AB80734A138801331380654BB3F9F1
:1089F0000030002B40F39B80A84580F29B806E4B9B
:108A00001B78002B00F0E6806C4A1388013313803A
:108A10005C4BB3F90030002B40F3AA802646A742F6
:108A200080F2A980059BB3F5966F03DB143EB74235
:108A300080F2A480624B4FF4A5721A80039B002B36
:108A4000C0F2EC80A5EB0805C5EB05155C4B1A8858
:108A50001544ADB21D80B5F5167F02D94FF41672DC
:108A60001A80584A4FF4BE731380E41B04EB84044D
:108A7000630003F5BE739BB21380B3F5F07F03D997
:108A800013464FF4FA721A804A4B1B88282B1FD9C1
:108A90004D4AA2FB03121209C2EB0212A3EB4203DE
:108AA0009BB2ABB9464B1B880A3B029A9A4204DA46
:108AB000464B1B78632B40F2B880414B1B880A332E
:108AC000029A9A4204DD414B1B783C2B00F2B480A1
:108AD0003A4B1B88282B7FF6CDAE3B4AA2FB0312F4
:108AE0001209C2EB0212A3EB42039BB2002B7FF4EC
:108AF000C1AE344B1B880A3B019A9A4204DA344BCC
:108B00001B78632B40F29F802E4B1B880A33019AFF
:108B10009A427FF7AFAE2E4B1B783C2B7FF6AAAE66
:108B2000013BD8B22A4B1870FEF742FEA2E6FFF7CF
:108B3000E5FD61E7FFF7E2FD61E71E4B00221A80C9
:108B4000104BB3F90030B3F5967FFFF658AF6B1EAC
:108B500043457FF754AF0C4B83FB0A234FEAEA707F
:108B6000C0EBA300C0F18700C0B2FFF7D7FD46E716
:108B7000FFF7F0FD52E7FFF7EDFD53E7FFF7EAFDE2
:108B800058E700BFB013002067666666AE1300208A
:108B9000BA130020BE130020B2130020B41300202B
:108BA000BC130020B6130020B8130020C01300200F
:108BB000AD130020A8130020AC130020A613002042
:108BC000A4130020A213002089888888AB130020FA
:108BD000AA1300201F4B00221A801F4BB3F900304C
:108BE000B3F5487FFFF626AF631EBB427FF722AF87
:108BF000059BB3F5966F04DBA4F114029742BFF610
:108C000019AF164B83FB0A234FEAEA70C0EBA300AF
:108C1000C0F18200C0B2FFF7ADFD0BE703EBD373E9
:108C20005B10D31A0E4A13800CE70133D8B20D4BF8
:108C30001870FEF789FD40E7013BD8B2094B187068
:108C4000FEF782FD44E70133D8B2074B1870FEF7F8
:108C5000AFFD59E7A6130020B013002067666666D3
:108C6000A4130020AB130020AA1300200023054A00
:108C70001380054A1380054A1360054A1360054AAC
:108C800013707047D6130020D4130020DC1300208B
:108C9000D8130020C213002008B52E4B1B682E4AA3
:108CA0001268934217D12D4A1368013313602C4A7E
:108CB000B2F90020002A1EDD44F2506191FBF2F26D
:108CC000B3EB420F17D90021254B198001225A20FE
:108CD000FDF7F0FE0FE0204A1360204B1A6844F2C3
:108CE0005061B1FBF2F11E4A118000221A6001228C
:108CF0005A20FDF7DFFE1B4B1B681B4A126893428C
:108D000017D11A4A136801331360194AB2F90020C7
:108D1000002A1EDD44F2506191FBF2F2B3EB420FE8
:108D200017D90021124B198001225B20FDF7C2FEEA
:108D30000FE00D4A13600D4B1A6844F25061B1FB0D
:108D4000F2F10B4A118000221A6001225B20FDF72C
:108D5000B1FE08BDDC130020D0130020C813002092
:108D6000D6130020D8130020CC130020C4130020F9
:108D7000D413002010B50021074B1960074C216067
:108D800001225C20FDF796FE0122B4F900105D205F
:108D9000FDF790FE10BD00BFDC130020D8130020AB
:108DA00010B50446022802D0042C0AD010BD0A4B8C
:108DB000196803311960012209B25C20FDF77AFEBF
:108DC000F2E7064B196803311960012209B25D20F0
:108DD000FDF770FEEAE700BFDC130020D813002087
:108DE00008B5017A007CFCF73BFB08BD10B50446D2
:108DF0008188006802F092FDA072237A984212D016
:108E0000A37B0133DBB2A373E27B934212D92072BE
:108E10000023A373A381637A98420BD0607220462B
:108E2000FFF7DEFF06E0A3894FF6FF72934201D001
:108E30000133A38110BD000084B038B504AC84E8D0
:108E40000F009DF824E08DF820E00B4D0EEB8E0313
:108E50004FEA830CAC440FCCACE80F002368CCF88D
:108E600000300EEB8E0E4FEA8E002844FFF7BEFF57
:108E7000BDE8384004B07047E013002030B589B039
:108E800000238DF814308DF816308DF81530ADF8BC
:108E900018308DF81A3014228DF81B204FF09042B4
:108EA0000392012504950193079B009303AC94E87A
:108EB0000F00FFF7C1FF0F4B0393082304930195A5
:108EC000079B009394E80F00FFF7B6FF8DF814504E
:108ED0008DF816508DF815504FF40073049302234B
:108EE0000193079B009394E80F00FFF7A5FF09B0DB
:108EF00030BD00BF00080048022801D9002070479B
:108F000000EB8000024B03EB8003187A704700BF30
:108F1000E013002010B5002408E004EB8402930065
:108F200004481844FFF762FF0134E4B2022CF4D97C
:108F300010BD00BFE01300202DE9F0438BB00024EA
:108F4000059406940794089409945B4BDA6C42F0FC
:108F50000402DA64DA6C02F004020092009ADA6C1D
:108F600042F08002DA64DA6C02F080020192019A27
:108F7000DA6C42F00102DA64DA6C02F00102029269
:108F8000029ADA6C42F00202DA64DA6C02F002024F
:108F90000392039ADA6C42F00802DA64DB6C03F0A5
:108FA00008030493049B454E224647F6C0413046D1
:108FB00002F0BBFC22460E214FF0904002F0B5FCBF
:108FC0003F4F22464FF62C71384602F0AEFCDFF8D8
:108FD000F49022460421484602F0A7FCDFF8E8801E
:108FE00022460821404602F0A0FC47F6C043059304
:108FF000012506950794089405A9304602F0AAFBBE
:1090000048F2083305930694079405A9304602F008
:10901000A1FB062305934FF488130693079405A933
:10902000304602F097FB05950694079405A94FF08A
:10903000904002F08FFB0E23059306950794089449
:1090400005A94FF0904002F085FB05950694079422
:1090500005A9384602F07EFB4FF62C730593069562
:109060000794089405A9384602F074FB042305937D
:1090700006950794089405A9484602F06BFB08265C
:10908000059606950794089405A9404602F062FBF0
:1090900022460A21072002F0AFF9072002F0BCF9AE
:1090A00022460A21304602F0A7F9304602F0B4F910
:1090B0000BB0BDE8F08300BF00100240000800487C
:1090C00000040048000C0048001C004800B583B0B4
:1090D000124B9A6C42F001029A649B6C03F00103FC
:1090E0000193019B002202210B2002F085F90B2045
:1090F00002F092F9002202210E2002F07DF90E20EA
:1091000002F08AF9002202210F2002F075F90F20E7
:1091100002F082F903B05DF804FB00BF00100240CA
:1091200072B6FEE708B50D480D4B0360052343609A
:1091300000238360C3604FF4602202614FF4401249
:1091400042610376012242768376C27603774377C3
:1091500001F048FD00B908BDFFF7E2FFFC15002053
:109160000064004010B596B0002413941494159434
:109170000C940D940E940F941094119412942C222C
:10918000214601A805F0ABF92C482D4B0360312393
:10919000436084604FF47A73C36004614461846106
:1091A00003F078FF00283DD1002313931493159307
:1091B00013A9224804F07AF9002835D160230C93D2
:1091C00000220D920E920F921092119212920CA9FF
:1091D0001A4803F0C9FF48BB04220CA9174803F042
:1091E000C3FF28BB08220CA9144803F0BDFF08BB2D
:1091F0000023019302930393049305934FF40052C9
:109200000692079308934FF0007209920A930B930A
:1092100001A90A4804F082F970B9084800F008FC76
:1092200016B010BDFFF77CFFFFF77AFFFFF778FF5E
:10923000FFF776FFFFF774FFFFF772FF7C15002042
:10924000002C014008B50B480B4B03604FF4614301
:10925000436000238360C36003610C224261836129
:10926000C3610362436204F0BCFE00B908BDFFF7AE
:1092700057FF00BFAC1400200038014000B585B096
:1092800000230193029303930D480E4A02600422C7
:10929000426083604FF47A72C260836103F0CAFE59
:1092A00050B900230193039301A9054804F0FEF887
:1092B00020B905B05DF804FBFFF732FFFFF730FF80
:1092C000301500200010004000B587B00023009347
:1092D000019302930393049305934348434A026026
:1092E00043608360C360012202610421416103760F
:1092F00042760821C16180F820308362C36280F821
:109300003020436380F8383000F0C2FD002859D186
:10931000374B009306230193002302937F2203928D
:1093200004220492059369462F4801F011F80028A1
:109330004AD1304B00930C23019369462A4801F02F
:1093400007F8002842D12C4B009312230193694661
:10935000254800F0FDFF00283AD1284B0093182340
:1093600001936946204800F0F3FF002832D1244BD6
:1093700000934FF48073019369461B4800F0E8FFA7
:1093800050BB204B00934FF48373019369461648FA
:1093900000F0DEFF10BB1C4B00934FF4867301936B
:1093A0006946114800F0D4FFD0B9184B00934FF430
:1093B0008973019369460C4800F0CAFF90B907B061
:1093C0005DF804FBFFF7ACFEFFF7AAFEFFF7A8FE6F
:1093D000FFF7A6FEFFF7A4FEFFF7A2FEFFF7A0FE31
:1093E000FFF79EFEFFF79CFE6C1600200000045065
:1093F000020030040002B0250004002A0008302ECC
:1094000000106032002090360040C03A0000214336
:1094100008B50A480A4B0360002343607C2282603F
:1094200040F2CF72C260036143618361C36103F0A4
:109430008BFA00B908BDFFF773FE00BFC815002006
:109440000028004008B50848084B03600623436025
:1094500040F6FF73C36040F27713836002F082FA34
:1094600000B908BDFFF75CFEEC150020003000409D
:1094700000B597B04422002105A805F030F800237C
:10948000009301930293039304934FF4007002F04E
:10949000ABFA30BB092305934FF4803306930123C5
:1094A0000A9302230F93032210921193192212920E
:1094B000072213921493159305A802F079FB90B933
:1094C0000F23009303210191002302934FF4806343
:1094D00003930493684602F0A1FE30B917B05DF81B
:1094E00004FBFFF71DFEFFF71BFEFFF719FE000050
:1094F00008B5114B114A9A60BFF34F8FBFF36F8FBE
:1095000000F076FCFFF7B4FFFFF716FDFFF7DEFD76
:10951000FFF708FEFFF726FEFFF794FEFFF7AEFE0B
:10952000FFF7D2FEFFF774FFFFF78CFFFDF7DAFBC2
:10953000FDF784FDFEE700BF00ED00E000420008FB
:1095400008B5FFF7E7FC08BD08B5FCF781F908BDD1
:1095500008B5FCF715F9FBF78FFEFDF72DFAFFF7BD
:1095600045F8FFF799FBFDF76FFEFCF711F808BD12
:1095700008B5FCF7ABFEFEF7B3FEFBF7F7FD08BD41
:1095800008B5FEF7DDFAFEF713FDFDF75BFBFDF70F
:1095900073FDFFF741F9FDF79BFF08BD0D4B01225D
:1095A0009A800D4B05229A800C4B0A229A800C4B14
:1095B00032229A800B4B64229A800B4BFA229A80BB
:1095C0000A4B4FF4FA729A80094B4FF47A729A80E0
:1095D000704700BF0817002000170020F816002071
:1095E000F0160020E8160020E0160020D816002013
:1095F000D0160020344A538801339BB2538092889E
:10960000934204D3304B01221A7000225A802F4A11
:10961000538801339BB253809288934204D32B4BDF
:1096200001221A7000225A80294A538801339BB2C2
:1096300053809288934204D3254B01221A70002252
:109640005A80244A538801339BB2538092889342B4
:1096500004D3204B01221A7000225A801E4A5388DC
:1096600001339BB253809288934204D31A4B012258
:109670001A7000225A80194A538801339BB25380D2
:109680009288934204D3154B01221A7000225A800B
:10969000134A538801339BB253809288934204D378
:1096A0000F4B01221A7000225A800E4A5388013350
:1096B0009BB253809288934204D30A4B01221A70C2
:1096C00000225A80704700BF0817002000170020B2
:1096D000F8160020F0160020E8160020E016002002
:1096E000D8160020D016002008B5204B1B78F3B9FF
:1096F0001F4B1B780BBB1F4B1B7823BB1E4B1B78D0
:1097000013B11D4B00221A701C4B1B780BBB1C4B5A
:109710001B7813B11A4B00221A701A4B1B7813B125
:10972000184B00221A70184B1B78C3B908BDFFF7FD
:1097300007FF0E4B00221A70DAE7FFF705FF0C4B0C
:1097400000221A70D7E7FFF703FF0A4B00221A70B6
:10975000D4E7FFF70DFF094B00221A70D7E7FFF798
:109760000FFF094B00221A70E0E700BF0817002026
:1097700000170020F8160020F0160020E816002040
:10978000E0160020D8160020D016002082B00A4B28
:109790001A6E42F001021A661A6E02F0010200927D
:1097A000009A9A6D42F080529A659B6D03F0805347
:1097B0000193019B02B070470010024070B5A0B049
:1097C000044600211B911C911D911E911F915C224A
:1097D00004A804F084FE22683A4B9A4201D020B0DB
:1097E00070BD4FF4804304934FF04053189304A886
:1097F00002F0BAFE00285ED1334BDA6C42F400521C
:10980000DA64DA6C02F400520092009ADA6C42F0E8
:109810000402DA64DA6C02F004020192019ADA6C52
:1098200042F00102DA64DA6C02F001020292029A5A
:10983000DA6C42F00202DA64DB6C03F00203039399
:10984000039B31231B930B261C9600251D951BA9FA
:109850001E4801F07FFFF0231B931C961D951BA94A
:109860004FF0904001F076FF02231B931C961D954C
:109870001BA9174801F06EFF1648174B036045609F
:109880008560C560802303614FF4807343614FF4AA
:1098900080638361C561056201F0F0FD70B90D4B15
:1098A000E3649C6200220221122001F0A5FD122037
:1098B00001F0B2FD93E7FFF733FC9DE7FFF730FCC3
:1098C000EDE700BF0000045000100240000800480F
:1098D00000040048241600200800024010B588B09B
:1098E0000023039304930593069307930268204B88
:1098F0009A4201D008B010BD03F5D6339A6D42F0FC
:1099000000729A659A6D02F000720192019ADA6C07
:1099100042F00102DA64DB6C03F001030293029B64
:109920004FF4C053039302240494032306930923A2
:10993000079303A94FF0904001F00CFF002221464D
:10994000132001F059FD132001F066FD00220121D2
:10995000142001F051FD142001F05EFD00220121D0
:10996000152001F049FD152001F056FDC2E700BFAA
:109970000064004010B598B004465C22002101A8A4
:1099800004F0ADFD22680D4B9A4201D018B010BD15
:109990004FF4003301934FF44073179301A802F082
:1099A000E3FD38B9064AD2F8903043F40043C2F8D8
:1099B0009030EBE7FFF7B4FBF4E700BF002800406E
:1099C000001002400268094B9A4200D0704782B0F2
:1099D00003F564431A6E42F400621A661B6E03F4C8
:1099E00000630193019B02B0704700BF002C01404F
:1099F00002680E4B9A4200D0704700B583B003F561
:109A000000339A6D42F010029A659B6D03F01003CB
:109A10000193019B00221146362001F0EDFC362017
:109A200001F0FAFC03B05DF804FB00BF0010004039
:109A300000B587B000230193029303930493059329
:109A400002680F4B9A4202D007B05DF804FB03F5A1
:109A50006443DA6C42F00102DA64DB6C03F0010368
:109A60000093009B4FF4E0630193022302930123D0
:109A7000059301A94FF0904001F06CFEE4E700BFB0
:109A8000002C014070B59EB00446002119911A9136
:109A90001B911C911D915C2202A804F020FD2268FC
:109AA000324B9A4201D01EB070BD0123029302A82E
:109AB00002F05AFD002850D12D4B1A6E42F480421C
:109AC0001A661A6E02F480420092009ADA6C42F032
:109AD0000202DA64DB6C03F002030193019BC023F2
